:020000040800F2
:10000000200500209D010008370F0008CB0E0008D6
:10001000350F0008A9020008E914000800000000DC
:100020000000000000000000000000005B0F00085E
:10003000AB02000800000000590F00085D0F000827
:10004000B7010008B7010008B7010008B7010008B0
:10005000B7010008B7010008B7010008B7010008A0
:10006000B7010008B7010008B7010008B701000890
:10007000B7010008B7010008B7010008B701000880
:10008000B7010008B7010008B7010008B701000870
:10009000B7010008B7010008B7010008B701000860
:1000A000B7010008B7010008B7010008B701000850
:1000B000B7010008B7010008B7010008B701000840
:1000C000B7010008B7010008B7010008B701000830
:1000D000B7010008B70100088D140008B701000837
:1000E000B7010008B7010008B7010008B701000810
:1000F000B7010008B7010008B7010008B701000800
:10010000B7010008B7010008B7010008B7010008EF
:10011000B7010008B7010008B7010008B7010008DF
:10012000B7010008B7010008B7010008B7010008CF
:10013000B7010008B7010008B7010008B7010008BF
:10014000B7010008B7010008B7010008B7010008AF
:10015000B7010008B7010008B7010008B70100089F
:10016000B7010008B7010008B7010008B70100088F
:10017000B7010008B7010008B7010008000000003F
:10018000B7010008B7010008DFF80CD000F07AF8DA
:100190000048004715160008200500200648804743
:1001A00006480047FEE7FEE7FEE7FEE7FEE7FEE75C
:1001B000FEE7FEE7FEE7FEE70D10000889010008F4
:1001C0002DE9F05F0546002092469B46884606468C
:1001D000814640241BE0284641464746224600F01F
:1001E00041F853465A46C01A914110D31146184659
:1001F000224600F028F82D1A67EB01084F462246E8
:100200000120002100F01FF817EB00094E41201ECD
:10021000A4F10104DFDC484631462A464346BDE8E6
:10022000F09FD2B201E000F8012B491EFBD27047CB
:100230000022F6E710B513460A4604461946FFF7B2
:10024000F0FF204610BD202A04DB203A00FA02F11C
:10025000002070479140C2F1200320FA03F31943B4
:1002600090407047202A04DB203A21FA02F0002156
:10027000704721FA02F3D040C2F1200291400843B6
:1002800019467047064C074D06E0E06840F0010350
:1002900094E8070098471034AC42F6D3FFF778FF94
:1002A000F016000810170008FEE7704790F83510A8
:1002B000022903D08021416501207047052180F883
:1002C00035100068016821F00101016000207047CD
:1002D00070B5044600F0ECF80546601C02D00448F6
:1002E0000078044400F0E4F8401BA042FAD370BD4B
:1002F000040000202DE9F84FDFF87CB100224FF018
:1003000001084FF0030A4FF00F090BF1040E00BF74
:100310000B6808FA02F42340A3426ED14D68022D07
:1003200001D0122D0ED1D50800EB850CDCF8205041
:100330005607F70E09FA07F6B5430E69BE402E437D
:10034000CCF82060066855000F790AFA05FC07F022
:10035000030726EA0C06AF40374307604E68012EBC
:1003600005D0022E03D0112E01D0122E0ED1866898
:10037000CF6826EA0C06AF40374387604668A6433D
:100380000C79C4F30014944034434460C6688C680C
:1003900026EA0C06AC403443C4604C68E40065D5E2
:1003A000364C256845F480452560246822F0030515
:1003B00004F480440094324C2E19D6F8084895076E
:1003C0002F0F09FA07F5AC432E4DA84201D10025A5
:1003D00024E02D4DA84201D101251FE02B4DA8425C
:1003E00001D102251AE02A4DA84201D1032515E0CA
:1003F000284DA84202D1042510E037E0264DA8423E
:1004000001D105250AE0254DA84201D1062505E0C8
:10041000234DA84201D1072500E00825BD40254312
:10042000C6F80858DBF800405D464E689C43F6036A
:1004300000D51C432C60DEF8004075464E689C4396
:10044000B60300D51C432C600B4D08352C684E6854
:100450009C43F60200D51C432C60074D0C352C68DC
:100460004E689C43B60200D51C432C60521C102AD7
:10047000FFF44EAFBDE8F88F003C01404438024025
:100480000030014000000240000402400008024029
:10049000000C02400010024000140240001802400C
:1004A000001C02400AB1816170470904FBE70000AB
:1004B00001488068704700000400002002488168FD
:1004C0000278114481607047040000200B4810B589
:1004D000016841F400710160016841F480610160CC
:1004E000016841F480710160032000F097F800205A
:1004F00000F006F800F024F8002010BD003C024097
:1005000070B50D4D04464FF47A712878B1FBF0F0C8
:100510000A490968B1FBF0F000F01BFB48B9102C48
:1005200007D200222146501E00F058F800206C60CF
:1005300070BD012070BD00000400002010000020EC
:100540001F4808B5016841F480410160006800F46B
:10055000804000901A48001F016841F080510160FE
:10056000006800F080500090032000F057F800224F
:1005700011466FF00B0000F031F8002211466FF0C9
:100580000A0000F02BF8002211466FF0090000F07D
:1005900025F800221146501F00F020F800221146D5
:1005A000101F00F01BF800221146901E00F016F8F4
:1005B0000022BDE808401146501E00F00FB80000B0
:1005C0004438024000F01F020121914040098000A0
:1005D00000F1E020C0F8001170470000F0B40E4BAD
:1005E0001B680C46C3F30223C3F10705042D00D991
:1005F0000425191D072901D2002300E0DB1E012676
:1006000006FA05F1491E214099409E40761E16408B
:100610003143F0BC00F090BC0CED00E0064900F066
:10062000070208684FF6FF03184040EA0220034A19
:1006300010430860704700000CED00E00000FA0570
:100640002DE9F0470E46050065D0DFF81481D8F893
:100650000000F7B200F00F00B04207D288F8007037
:10066000D8F8000000F00F00B04254D128683D4C8B
:10067000810712D5400703D5206840F4E050206080
:100680002878000703D5206840F460402060206887
:10069000A96820F0F000084320602878C0072DD01A
:1006A000304968680839012812D0022813D003287D
:1006B00011D00968890700292DDA216821F003018A
:1006C00001432160FFF7F4FE814641F2883A0EE0D3
:1006D00009688903EFE709688901ECE7FFF7E8FE9D
:1006E000A0EB0901514502D90320BDE8F08720683D
:1006F000696800F00C00B0EB810FEFD1D8F8001062
:10070000404601F00F01B14207D90770006800F0C0
:100710000F00B04201D00120E7E72878400705D557
:100720002068E96820F4E05008432060287800073A
:1007300006D52068296920F4604040EAC1002060A5
:1007400000F03CF82168084AC1F30311515CC8402D
:10075000064908600020FFF7D3FE0020C5E700002F
:10076000003C024008380240D81600081000002063
:100770000148006870470000100000200448054947
:1007800000680968044AC1F38221515CC84070477F
:100790001000002008380240E81600080448054907
:1007A00000680968044AC1F34231515CC84070478F
:1007B0001000002008380240E8160008154810B55F
:1007C000006810F00C02144813D04110042A0FD016
:1007D000082A0ED10F4C241F2268236802F03F0222
:1007E0005B0207D52068C0F38810A0FB010106E07A
:1007F000084610BD2168C1F38811A1FB0001002348
:10080000FFF7DEFC2168C1F30141491C4900B0FB40
:10081000F1F010BD083802400024F4002DE9F84F33
:10082000050076D02878DFF8F8B2BE4CC00749D072
:10083000DBF800105846C1F38101012908D0006897
:10084000C0F3810002280AD1201D0068400206D5AD
:100850002068800336D568680028E2D032E06868F6
:10086000B0F5803F10D0B0F5A02F206810D020F454
:1008700080302060206820F4802020606868A0B16B
:10088000FFF716FE06460CE0206840F48030F4E7DF
:1008900040F480202060F7E7FFF70AFE801B642801
:1008A00073D820688003F7D50CE0FFF701FE0646F9
:1008B00005E000BFFFF7FCFD801B6428F0D820682E
:1008C0008003F7D42878DFF8608280074FF00009B2
:1008D0003ED5DBF80010584611F00C0F09D0006827
:1008E000C0F3810002280BD18D48001F0068400230
:1008F00006D42068800715D5E868012809D111E0E1
:10090000E868B8B10120C8F80000FFF7D1FD06463D
:1009100005E002E1FFF7CCFD801B0228C0D820686B
:100920008007F7D52068296920F0F80040EAC10067
:1009300020600DE0C8F80090FFF7BAFD064604E01D
:10094000FFF7B6FD801B02281FD820688007F7D468
:100950002878000722D5724E744869696C3671B1E7
:1009600001210160FFF7A4FD074604E0FFF7A0FDA9
:10097000C01B022809D830688007F7D50EE0C0F800
:100980000090FFF795FD074605E083E0FFF790FD37
:10099000C01B02287ED830688007F7D4287840072B
:1009A00068D5DFF87CA100270AF1380ADAF80000E0
:1009B000C0000BD4DAF8001041F08051CAF80010E2
:1009C000DAF80000012700F080500090584E30689F
:1009D000C00510D4306840F480703060FFF768FDC7
:1009E000009005E0FFF764FD0099401A022851D8F5
:1009F0003068C005F6D54A4EA868683601280FD081
:100A00000528306810D020F001003060306820F0F8
:100A100004003060A868B8B1FFF74AFD00900FE00D
:100A2000306840F00100F4E740F004003060F7E780
:100A3000FFF73EFD0099411A41F28830814264D8A7
:100A400030688007F4D50EE0FFF732FD009007E034
:100A5000FFF72EFD0099411A41F28830814254D8A7
:100A600030688007F4D42FB1DAF8001021F08051FB
:100A7000CAF80010A869C0B3DBF80010C1F3810107
:100A800002294AD00228484607D0C8F86000FFF77C
:100A90000FFD00E039E005463AE04746C8F860003F
:100AA000FFF706FD064604E0FFF702FD801B022863
:100AB0002BD820688001F7D4D5E907010843A96A3B
:100AC0001C4A490802EB01416A6A41EA8211084363
:100AD00095F82C1040EA01611148001F01600120C7
:100AE0003866FFF7E5FC054605E014E0FFF7E0FC9B
:100AF000401B022809D820688001F7D50BE000BF11
:100B0000FFF7D6FC401B022802D90320BDE8F88F6E
:100B100020688001F4D40020F8E70120F6E7000007
:100B2000083802400038024000004742800E474229
:100B3000007000400000FFFF4FF0E021042808692A
:100B400003D020F004000861704740F00400FAE789
:100B5000704710B5401EB0F1807F01D3012010BD59
:100B60004FF0E02460610F21601700F0E5F90020EC
:100B7000A06107202061002010BD10B5FFF7E8FF3D
:100B800010BD704770B5026804461068D16853699B
:100B900010F00F0F50D003F0010501F490763543AB
:100BA0005DD0C20705D0CA0503D5E26B42F0010251
:100BB000E263420705D5DA0703D0E26B42F0020296
:100BC000E263820705D5DA0703D0E26B42F0040244
:100BD000E263020705D5DA0703D0E26B42F00802B0
:100BE000E263E26B002A33D0800604D5880602D582
:100BF000204600F04BFA20684069E16BC0F380109A
:100C0000090700D428B3204600F032FA2068416971
:100C100049061AD5416921F040014161606BA0B1DC
:100C20001B490165606BFFF741FB002810D0606B2A
:100C3000016DBDE870400847830610D58B060ED5C0
:100C40002046BDE8704000F021BA2046FFF799FF2A
:100C500070BD2046FFF795FF0020E06370BD0306DE
:100C600006D50B0604D52046BDE8704000F0AABBAF
:100C70004006F3D54806F1D5D168204621F0400161
:100C8000D160202184F8391000F01EF970BD0000F9
:100C90006110000870B5040004D094F839000025F4
:100CA00010B106E0012070BD84F83850204600F0F5
:100CB00023F8242084F839002068C16821F4005109
:100CC000C160204600F028FA2068016921F49041B3
:100CD00001612068416921F02A0141612068C168F1
:100CE00041F40051C160E563202084F8390084F8A4
:100CF0003A00002070BD000000B50068124987B0BE
:100D000088421ED11148016841F400310160006839
:100D1000694600F4003005900C20009002200190FC
:100D20000120029003200390072004900848FFF759
:100D3000E1FA002211462620FFF750FC2620FFF79B
:100D400041FC07B000BD00000044004040380240B4
:100D5000000002402DE9F843044690F83A00994615
:100D600016460D4620284FD195B18EB194F8380023
:100D7000012849D0012084F838000027E7632220A9
:100D800084F83A00FFF794FBA6858046E68531E0BB
:100D90000120BDE8F883E08D401EE085A068434651
:100DA000B0F5805F4FF000024FF020012046CDF8F3
:100DB000009004D000F037FB98B10320E9E700F081
:100DC00032FB0028F9D1206900282068406803D050
:100DD000C1B225F8011B0DE0C0F3080125F8021B84
:100DE00008E0206900282068406801D000F07F00FA
:100DF00005F8010BE08D0028CDD1202084F83A00C1
:100E000084F838700020C4E70220C2E770472DE95B
:100E1000F843044690F839001F4616460D46202830
:100E200050D1A5B19EB194F8380001284AD00120D4
:100E300084F838004FF00008C4F83C80212084F882
:100E40003900FFF735FBA6848146E68426E00120C1
:100E5000BDE8F883E08C401EE084A0684B46B0F506
:100E6000805F4FF000024FF080012046009703D0D2
:100E700000F0D9FAE8B90DE000F0D5FAC8B9288831
:100E80002168C0F308004860206908B16D1C05E0C6
:100E9000AD1C03E0216815F8010B4860E08C0028C8
:100EA000D8D14B46002240212046009700F0BBFAE3
:100EB00008B10320CCE7202084F8390084F838807A
:100EC0000020C5E70220C3E77047FEE770B517486A
:100ED00086B00024016841F080010160016801F0E2
:100EE00080010591016841F001010160016801F094
:100EF00001010591016841F00801016000680C4E94
:100F000000F008004FF48055059000222946304635
:100F1000FFF7C8FA01200095CDE901046946304683
:100F20000394FFF7E7F906B070BD000030380240C7
:100F3000000C0240FEE770470907090E002806DA98
:100F400000F00F0000F1E02080F8141D704700F160
:100F5000E02080F8001470477047704710B5FFF725
:100F6000ADFABDE81040FFF708BE000030B52548D7
:100F700093B00025016841F080510160006800F0E5
:100F8000805011902048016841F480410160006860
:100F9000022400F48040119001200390102004905E
:100FA000009406940820CDE90750A820CDE9090453
:100FB00004200B906846FFF731FC00B1FEE70CA956
:100FC0000F2081E831004FF4A0500F904FF4805073
:100FD000109005210CA8FFF733FB00B1FEE7FFF7E7
:100FE000C7FB4FF47A71B0FBF1F0FFF7B2FD0420BC
:100FF000FFF7A2FD00221146501EFFF7EFFA13B0D3
:1010000030BD0000403802400070004010480168C8
:1010100041F4700101600F48016841F00101016075
:101020000C4A00210832116002680B4B1A40026022
:10103000031D0A4A1A60026822F4802202600548F1
:101040000C30016002495806803908607047000082
:1010500088ED00E000380240FFFFF6FE103000246B
:1010600010B5806B0021C185C184FFF78AFD10BDDA
:101070000168CA6822F49072CA6001684A6922F065
:1010800001024A61202180F83A10704710B590F8AB
:101090003A10222901D0022010BD8168B1F5805F8D
:1010A00011D00169002901681FD0496801F07F0350
:1010B000816A4A1C82620B70C18D491E0904090CA9
:1010C000C18518D026E00269816A002A0268526848
:1010D00005D0D2B20A80816A491C8162ECE7C2F372
:1010E00008020A80816A891CF7E74A68816A4B1CFA
:1010F00083620A70E0E70168CA6822F49072CA60ED
:1011000001684A6922F001024A61202180F83A1000
:10111000FFF77CFE002010BD2DE9F0410446006879
:10112000016921F44052E168114301612168C868F6
:1011300049F20C6290432369A268E5691A43636926
:101140002B431A430243CA602168486920F4407265
:10115000A06910434861E1696425B1F5004F9748E3
:10116000974A21684FF032083FD0914201D0814226
:101170007CD1FFF713FB00EBC00101EB00106168AD
:101180008900B0FBF1F6FFF709FB00EBC00101EBB2
:10119000001061688900B0FBF1F0B0FBF5F06FF072
:1011A0001801484306EB800108EB0110B0FBF5F095
:1011B00000F0F006FFF7F2FA00EBC00101EB0010BF
:1011C00061688900B0FBF1F0B0FBF5F006EB0016AA
:1011D000FFF7E4FA00EBC00101EB00106168890041
:1011E000B0FBF1F7FFF7DAFAD2E0914201D0814289
:1011F0003DD1FFF7D3FA00EBC00101EB00106168AD
:101200004900B0FBF1F0B0FBF5F00601FFF7C6FABC
:1012100000EBC00101EB001061684900B0FBF1F781
:10122000FFF7BCFA00EBC00101EB00106168490058
:10123000B0FBF1F0B0FBF5F06FF01801484307EB9D
:10124000800108EBC100B0FBF5F000F0F80006EB00
:101250004006FFF7A3FA00EBC00101EB0010616844
:101260004900B0FBF1F7FFF799FA3CE055E0FFF7D2
:1012700085FA00EBC00101EB001061684900B0FB8A
:10128000F1F0B0FBF5F00601FFF778FA00EBC001D2
:1012900001EB001061684900B0FBF1F7FFF76EFA4F
:1012A00000EBC00101EB001061684900B0FBF1F0F8
:1012B000B0FBF5F06FF01801484307EB800108EB35
:1012C000C100B0FBF5F000F0F80006EB4006FFF7B8
:1012D00055FA00EBC00101EB001061684900B0FB5A
:1012E000F1F7FFF74BFA00EBC00101EB001061686A
:1012F0004900B0FBF1F0B0FBF5F06FF01801484386
:1013000007EB800108EBC100B0FBF5F000F007002F
:10131000216830448860BDE8F081FFF72FFA00EBC8
:10132000C00101EB001061688900B0FBF1F6FFF726
:1013300025FA00EBC00101EB001061688900B0FBE9
:10134000F1F0B0FBF5F06FF01801484306EB8001B7
:1013500008EB0110B0FBF5F000F0F006FFF70EFA15
:1013600000EBC00101EB001061688900B0FBF1F0F7
:10137000B0FBF5F006EB0016FFF700FA00EBC0013A
:1013800001EB001061688900B0FBF1F7FFF7F6F997
:1013900000EBC00101EB001061688900B0FBF1F0C7
:1013A000B0FBF5F06FF01801484307EB800108EB44
:1013B0000110B0FBF5F000F00F00A9E700140140A8
:1013C0000010014090F83910212901D00220704707
:1013D0008168B1F5805F016A0BD04A1C0262026825
:1013E00009785160C18C491E0904090CC1840ED0D2
:1013F00017E009880268C1F30801516001690029FA
:10140000016A02D0491C0162ECE7891CFBE7016814
:10141000CA6822F08002CA600068C16841F04001D9
:10142000C160002070472DE9F041984617460E46EE
:101430000446069D1DE0681C1BD02DB1FFF738F84F
:10144000A0EB0800A84214D92068C16821F4D0712B
:10145000C1602068416921F001014161202084F8C8
:10146000390084F83A00002084F838000320BDE8F1
:10147000F0812068006836EA000004D00020B842FD
:10148000D9D00020F3E70120F9E7000070B564230C
:10149000012212491248FFF75DFC1148FFF772FB69
:1014A0000E48104CA0F1320102780A2A04D02078AC
:1014B0000A54401C207070BD084B00202278643B09
:1014C00002E00D5C1D54401C9042FADB03483221BF
:1014D0003238FEF7ADFE0120607070BDEA000020DA
:1014E0001400002000000020FEE700000FB4084BAD
:1014F00010B504A902AA039800F01BF8044602A93B
:10150000002000F081F8204610BC5DF814FB0000BC
:101510000916000802E008C8121F08C1002AFAD103
:1015200070477047002001E001C1121F002AFBD163
:1015300070472DE9F84F99469246884605460027A0
:1015400006E025280AD051464A4690476D1C7F1C6C
:1015500028780028F5D13846BDE8F88F002315F823
:10156000011F18462E2915D115F8011F04232A2919
:101570000DD06FF02F022978A1F13004092C09D881
:1015800000EB800002EB400008446D1CF3E758F8C4
:10159000040B6D1C2A78002ADDD0632A07D0732A39
:1015A0000FD0104651464A4690477F1C2AE018F853
:1015B000042B8DF8002000218DF801106E460121CA
:1015C00003E058F8046B4FF0FF315A074FF0000466
:1015D00001D409E0641C84420BDA8C42FADB325DF0
:1015E000002AF7D105E0641C8C42FCDB305D00284A
:1015F000F9D1274404E016F8010B51464A469047BA
:10160000641EF8D26D1CA3E70A68531C0B601070AF
:1016100070470000FEF75AFFFFF7A8FCFFF756FCE3
:10162000234D2248002428604FF4E130C5E901042D
:101630000C20EC60C5E90440AC612846EC61FFF782
:1016400029FB00B1FEE72868C16841F02001C160B4
:10165000184D194FDFF864904FF48058287801280E
:10166000FCD10122464641463846FEF71BFFFA20D0
:10167000FEF72EFE002231463846FEF713FF0C48D7
:101680000F4A10A14030FFF731FF32210C48FEF71E
:10169000CFFD99F80020064964234E4640310448A6
:1016A0000E32FFF7B4FB2C703470D7E700440040D3
:1016B0001400002001000020000C02400000002067
:1016C0008600002047656C656E20566572693A2079
:1016D0002573200A00000000000000000000000048
:1016E00001020304060708090000000001020304C8
:1016F0001017000800000020140000001415000856
:1017000024170008140000200C0500002415000810
:1017100000000000010000001000000000000000B8
:041720000024F400AD
:040000050800018965
:00000001FF
