:020000040800F2
:10000000380400209D010008FB0D0008670D000862
:10001000F90D000885020008210F0008000000000B
:100020000000000000000000000000001F0E00089B
:1000300087020008000000001D0E0008210E0008C5
:10004000B7010008B7010008B7010008B7010008B0
:10005000B7010008B701000889020008B7010008CD
:10006000B7010008B7010008B7010008B701000890
:10007000B7010008B7010008B7010008B701000880
:10008000B7010008B7010008B7010008B701000870
:10009000B7010008B7010008B7010008B701000860
:1000A000B7010008B7010008B7010008B701000850
:1000B000B7010008B7010008B7010008B701000840
:1000C000B7010008B7010008B7010008B701000830
:1000D000B7010008B7010008B7010008B701000820
:1000E000B7010008B7010008B7010008B701000810
:1000F000B7010008B7010008B7010008B701000800
:10010000B7010008B7010008B7010008B7010008EF
:10011000B7010008B7010008B7010008B7010008DF
:10012000B7010008B7010008B7010008B7010008CF
:10013000B7010008B7010008B7010008B7010008BF
:10014000B7010008B7010008B7010008B7010008AF
:10015000B7010008B7010008B7010008B70100089F
:10016000B7010008B7010008B7010008B70100088F
:10017000B7010008B7010008B7010008000000003F
:10018000B7010008B7010008DFF80CD000F068F8EC
:1001900000480047690F00083804002006488047DF
:1001A00006480047FEE7FEE7FEE7FEE7FEE7FEE75C
:1001B000FEE7FEE7FEE7FEE7CD0E00088901000836
:1001C0002DE9F05F0546002092469B46884606468C
:1001D000814640241BE0284641464746224600F01F
:1001E0002FF853465A46C01A914110D3114618466B
:1001F000224600F016F82D1A67EB01084F462246FA
:100200000120002100F00DF817EB00094E41201EDF
:10021000A4F10104DFDC484631462A464346BDE8E6
:10022000F09F202A04DB203A00FA02F100207047F8
:100230009140C2F1200320FA03F319439040704724
:10024000202A04DB203A21FA02F00021704721FA2B
:1002500002F3D040C2F12002914008431946704792
:10026000064C074D06E0E06840F0010394E8070003
:1002700098471034AC42F6D3FFF78AFF4C100008C1
:100280006C100008FEE7704710B5012000F038F947
:1002900003480178491C017002490120087010BD13
:1002A0000000002001000020002229B101291AD0FD
:1002B00002291BD04FF440720E490B6823F440739F
:1002C0000B600B6813430B600A6822F0F8020A60A7
:1002D0000A68022303EBC00002430A60086840F486
:1002E0008030086070474FF48072E5E74FF4007289
:1002F000E2E70000103C0240064A136823F4407312
:10030000136013681360136843F0010313600170F6
:1003100070470000103C0240084910B50C6824F4F6
:1003200040740C600C6844F440740C600C6844F039
:1003300001040C600260436010BD0000103C0240EC
:10034000074A136823F440731360136843F48073FF
:100350001360136843F001031360018070470000CD
:10036000103C0240074A136823F44073136013687B
:1003700043F400731360136843F0010313600160DA
:1003800070470000103C024017490868C206174831
:1003900005D5C26942F01002C26110220A600A68E3
:1003A000920605D5C26942F00802C26120220A60A5
:1003B0000A68520605D5C26942F00402C2614022B1
:1003C0000A600A68120605D5C26942F00202C261DB
:1003D00080220A600A68920705D5C26942F02002AD
:1003E000C2610220086070470C3C024014000020EB
:1003F00070B5114904460020C86100F06BF906464B
:100400000E4D09E0601C07D024B100F063F9801B99
:10041000A04201D9032070BD2868C003F2D4286827
:10042000C00701D001202860286810F0F200F2D047
:10043000FFF7AAFF012070BD140000200C3C024011
:100440000348016841F0004101600020704700004E
:10045000103C02402DE9F0471B4E05461446307E05
:100460001F468946012808D0012030764CF25038CA
:100470004046FFF7BDFF18B114E00220BDE8F08749
:100480009DB1012D16D0022D19D022463B4648467B
:10049000FFF742FF4046FFF7ABFF0C490A6822F026
:1004A00001020A6000213176E8E7E1B24846FFF731
:1004B00023FFEFE7A1B24846FFF742FFEAE72146F4
:1004C0004846FFF74FFFE5E714000020103C0240CC
:1004D000074900200A68002A09DA054A054B0C3A48
:1004E0001360054B13600968002900DA012070478A
:1004F000103C024023016745AB89EFCD70470000F7
:10050000044910B50A68024202D00860FFF7F6FFFE
:1005100010BD0000143C01402DE9F84FDFF87CB11C
:1005200000224FF001084FF0030A4FF00F090BF1C2
:10053000040E00BF0B6808FA02F42340A3426ED1F8
:100540004D68022D01D0122D0ED1D50800EB850C7F
:10055000DCF820505607F70E09FA07F6B5430E6986
:10056000BE402E43CCF82060066855000F790AFA89
:1005700005FC07F0030726EA0C06AF403743076087
:100580004E68012E05D0022E03D0112E01D0122E5E
:100590000ED18668CF6826EA0C06AF4037438760E5
:1005A0004668A6430C79C4F3001494403443446075
:1005B000C6688C6826EA0C06AC403443C4604C68BC
:1005C000E40065D5364C256845F4804525602468EF
:1005D00022F0030504F480440094324C2E19D6F81E
:1005E000084895072F0F09FA07F5AC432E4DA8428E
:1005F00001D1002524E02D4DA84201D101251FE0A5
:100600002B4DA84201D102251AE02A4DA84201D162
:10061000032515E0284DA84202D1042510E037E05B
:10062000264DA84201D105250AE0254DA84201D159
:10063000062505E0234DA84201D1072500E0082545
:10064000BD402543C6F80858DBF800405D464E68BB
:100650009C43F60300D51C432C60DEF80040754631
:100660004E689C43B60300D51C432C600B4D0835E7
:100670002C684E689C43F60200D51C432C60074D45
:100680000C352C684E689C43B60200D51C432C6088
:10069000521C102AFFF44EAFBDE8F88F003C014019
:1006A0004438024000300140000002400004024093
:1006B00000080240000C02400010024000140240FA
:1006C00000180240001C02400AB181617047090411
:1006D000FBE700000148806870470000040000202C
:1006E000024881680278114481607047040000204C
:1006F0000B4810B5016841F400710160016841F4D4
:1007000080610160016841F480710160032000F0A4
:1007100097F8002000F006F800F024F8002010BD43
:10072000003C024070B50D4D04464FF47A712878B4
:10073000B1FBF0F00A490968B1FBF0F000F0FBFAF8
:1007400048B9102C07D200222146501E00F058F85C
:1007500000206C6070BD012070BD0000040000200E
:10076000100000201F4808B5016841F48041016075
:10077000006800F4804000901A48001F016841F0B2
:1007800080510160006800F080500090032000F06C
:1007900057F8002211466FF00B0000F031F80022EC
:1007A00011466FF00A0000F02BF8002211466FF09E
:1007B000090000F025F800221146501F00F020F833
:1007C00000221146101F00F01BF800221146901E57
:1007D00000F016F80022BDE808401146501E00F057
:1007E0000FB800004438024000F01F020121914080
:1007F0004009800000F1E020C0F8001170470000BF
:10080000F0B40E4B1B680C46C3F30223C3F107057B
:10081000042D00D90425191D072901D2002300E069
:10082000DB1E012606FA05F1491E214099409E4033
:10083000761E16403143F0BC00F0E0BA0CED00E04B
:10084000064900F0070208684FF6FF03184040EA27
:100850000220034A10430860704700000CED00E0DE
:100860000000FA052DE9F0470E46050065D0DFF8D7
:100870001481D8F80000F7B200F00F00B04207D2A0
:1008800088F80070D8F8000000F00F00B04254D192
:1008900028683D4C810712D5400703D5206840F4F5
:1008A000E05020602878000703D5206840F46040BD
:1008B00020602068A96820F0F000084320602878B4
:1008C000C0072DD0304968680839012812D00228A5
:1008D00013D0032811D00968890700292DDA21686F
:1008E00021F0030101432160FFF7F4FE814641F24C
:1008F000883A0EE009688903EFE709688901ECE7A7
:10090000FFF7E8FEA0EB0901514502D90320BDE83D
:10091000F0872068696800F00C00B0EB810FEFD120
:10092000D8F80010404601F00F01B14207D9077016
:10093000006800F00F00B04201D00120E7E72878FE
:10094000400705D52068E96820F4E050084320609E
:100950002878000706D52068296920F4604040EA1D
:10096000C100206000F01CF82168084AC1F303119F
:10097000515CC840064908600020FFF7D3FE002004
:10098000C5E70000003C0240083802403C10000867
:10099000100000200148006870470000100000208F
:1009A000154810B5006810F00C02144813D041101F
:1009B000042A0FD0082A0ED10F4C241F2268236866
:1009C00002F03F025B0207D52068C0F38810A0FB4D
:1009D000010106E0084610BD2168C1F38811A1FBA2
:1009E00000010023FFF7ECFB2168C1F30141491C22
:1009F0004900B0FBF1F010BD083802400024F400BB
:100A00002DE9F84F050076D02878DFF8F8B2BE4C13
:100A1000C00749D0DBF800105846C1F38101012915
:100A200008D00068C0F3810002280AD1201D0068A8
:100A3000400206D52068800336D568680028E2D0D9
:100A400032E06868B0F5803F10D0B0F5A02F206884
:100A500010D020F480302060206820F480202060B6
:100A60006868A0B1FFF736FE06460CE0206840F447
:100A70008030F4E740F480202060F7E7FFF72AFE9B
:100A8000801B642873D820688003F7D50CE0FFF73B
:100A900021FE064605E000BFFFF71CFE801B642810
:100AA000F0D820688003F7D42878DFF860828007C8
:100AB0004FF000093ED5DBF80010584611F00C0F3E
:100AC00009D00068C0F3810002280BD18D48001FB7
:100AD0000068400206D42068800715D5E868012820
:100AE00009D111E0E868B8B10120C8F80000FFF7AB
:100AF000F1FD064605E002E1FFF7ECFD801B022850
:100B0000C0D820688007F7D52068296920F0F80050
:100B100040EAC10020600DE0C8F80090FFF7DAFD60
:100B2000064604E0FFF7D6FD801B02281FD8206888
:100B30008007F7D42878000722D5724E7448696977
:100B40006C3671B101210160FFF7C4FD074604E076
:100B5000FFF7C0FDC01B022809D830688007F7D511
:100B60000EE0C0F80090FFF7B5FD074605E083E012
:100B7000FFF7B0FDC01B02287ED830688007F7D48D
:100B80002878400768D5DFF87CA100270AF1380AE9
:100B9000DAF80000C0000BD4DAF8001041F0805100
:100BA000CAF80010DAF80000012700F08050009029
:100BB000584E3068C00510D4306840F48070306002
:100BC000FFF788FD009005E0FFF784FD0099401ACB
:100BD000022851D83068C005F6D54A4EA868683654
:100BE00001280FD00528306810D020F001003060B7
:100BF000306820F004003060A868B8B1FFF76AFDE3
:100C000000900FE0306840F00100F4E740F004008D
:100C10003060F7E7FFF75EFD0099411A41F2883036
:100C2000814264D830688007F4D50EE0FFF752FDAA
:100C3000009007E0FFF74EFD0099411A41F288301D
:100C4000814254D830688007F4D42FB1DAF800100C
:100C500021F08051CAF80010A869C0B3DBF8001079
:100C6000C1F3810102294AD00228484607D0C8F8BA
:100C70006000FFF72FFD00E039E005463AE0474607
:100C8000C8F86000FFF726FD064604E0FFF722FDE6
:100C9000801B02282BD820688001F7D4D5E90701F2
:100CA0000843A96A1C4A490802EB01416A6A41EA01
:100CB0008211084395F82C1040EA01611148001F89
:100CC000016001203866FFF705FD054605E014E0E8
:100CD000FFF700FD401B022809D820688001F7D5E6
:100CE0000BE000BFFFF7F6FC401B022802D90320EF
:100CF000BDE8F88F20688001F4D40020F8E70120D7
:100D0000F6E7000008380240003802400000474281
:100D1000800E4742007000400000FFFF4FF0E021CE
:100D20000428086903D020F004000861704740F0EF
:100D30000400FAE7704710B5401EB0F1807F01D380
:100D4000012010BD4FF0E02460610F21601700F01A
:100D500055F80020A06107202061002010BD10B5CB
:100D6000FFF7E8FF10BDFEE7F0B51F4887B000248D
:100D7000016841F080010160016801F08001059186
:100D8000016841F001010160016801F00101059174
:100D9000016841F0080101600068144F00F008008C
:100DA0004FF470460590002231463846FFF78CFC20
:100DB0000F480125CDE900500220029069460D48F8
:100DC000FFF7AAFB0096CDE9015469463846039423
:100DD000FFF7A2FB002211460620FFF711FD0620B7
:100DE000FFF702FD07B0F0BD30380240000C0240B2
:100DF0000000111000000240FEE770470907090ECD
:100E0000002806DA00F00F0000F1E02080F8141D41
:100E1000704700F1E02080F8001470477047704779
:100E200010B5FFF75DFCBDE81040FFF798BF00006C
:100E300030B5244893B00025016841F0805101602D
:100E4000006800F0805011901F48016841F4804113
:100E500001600068022400F480401190012000909D
:100E6000000401908001CDE9064008AA0420A821D1
:100E700082E813000B906846FFF7C2FD00B1FEE761
:100E80000CA90F2081E831004FF4A0500F904FF4CF
:100E90008050109005210CA8FFF7E4FC00B1FEE79C
:100EA000FFF778FD4FF47A71B0FBF1F0FFF743FFE5
:100EB0000420FFF733FF00221146501EFFF7A0FC6D
:100EC00013B030BD40380240007000401048016847
:100ED00041F4700101600F48016841F001010160B7
:100EE0000C4A00210832116002680B4B1A40026064
:100EF000031D0A4A1A60026822F480220260054833
:100F00000C300160024958068039086070470000C3
:100F100088ED00E000380240FFFFF6FE10300024AC
:100F2000FEE702E008C8121F08C1002AFAD1704784
:100F30007047002001E001C1121F002AFBD1704759
:100F400070B50C460546FFF7C3FA00210B20FFF7EA
:100F5000ABF92246002329460220FFF77BFABDE8C1
:100F60007040FFF76DBA0000314EFFF7C1FBFFF78D
:100F70005FFFFFF7F9FE30682E4C052800D2207085
:100F80002D4D4FF480584FF400594FF4804A4FF4E0
:100F9000004B0027207805283FD2DFE800F003054A
:100FA0001A212D00002200E0012241462846FFF7C9
:100FB0008BFB002249462846FFF786FB002251465C
:100FC0002846FFF781FB002259462846FFF77CFBA5
:100FD00024E0012241462846FFF776FB0122E9E79B
:100FE000012241462846FFF76FFB01224946284669
:100FF000FFF76AFB0122E2E7012241462846FFF79C
:1010000063FB012249462846FFF75EFB0122514659
:101010002846FFF759FB0122D6E7277060780128A0
:10102000B8D121783046FFF78BFF6770B2E7000038
:1010300000000E0800000020000C0240000000002C
:101040000000000001020304060708096C100008F4
:101050000000002014000000220F0008801000088B
:101060001400002024040000320F000800000000DB
:101070000100000010000000000000000024F40047
:040000050800018965
:00000001FF
