:020000040800F2
:10000000500400209D010008730E0008C90D00086F
:10001000710E0008850200084B1200080000000065
:10002000000000000000000000000000970E000823
:100030008702000800000000950E0008990E0008D5
:10004000B7010008B7010008B7010008B7010008B0
:10005000B7010008B7010008B7010008B7010008A0
:10006000B7010008B7010008B7010008B701000890
:10007000B7010008B7010008B7010008B701000880
:10008000B7010008B7010008B7010008B701000870
:10009000B7010008B7010008B7010008B701000860
:1000A000B7010008B7010008B7010008B701000850
:1000B000B7010008B7010008B7010008B701000840
:1000C000B7010008B7010008B7010008B701000830
:1000D000B7010008B7010008B7010008B701000820
:1000E000B7010008B7010008B7010008B701000810
:1000F000B7010008B7010008B7010008B701000800
:10010000B7010008B7010008B7010008B7010008EF
:10011000B7010008B7010008B7010008B7010008DF
:10012000B7010008B7010008B7010008B7010008CF
:10013000B7010008B7010008B7010008B7010008BF
:10014000B7010008B7010008B7010008B7010008AF
:10015000B7010008B7010008B7010008B70100089F
:10016000B7010008B7010008B7010008B70100088F
:10017000B7010008B7010008B7010008000000003F
:10018000B7010008B7010008DFF80CD000F068F8EC
:10019000004800476D1200085004002006488047C0
:1001A00006480047FEE7FEE7FEE7FEE7FEE7FEE75C
:1001B000FEE7FEE7FEE7FEE7490F000889010008B9
:1001C0002DE9F05F0546002092469B46884606468C
:1001D000814640241BE0284641464746224600F01F
:1001E0002FF853465A46C01A914110D3114618466B
:1001F000224600F016F82D1A67EB01084F462246FA
:100200000120002100F00DF817EB00094E41201EDF
:10021000A4F10104DFDC484631462A464346BDE8E6
:10022000F09F202A04DB203A00FA02F100207047F8
:100230009140C2F1200320FA03F319439040704724
:10024000202A04DB203A21FA02F00021704721FA2B
:1002500002F3D040C2F12002914008431946704792
:10026000064C074D06E0E06840F0010394E8070003
:1002700098471034AC42F6D3FFF78AFFF812000813
:1002800018130008FEE770472DE9F84FDFF87CB13E
:1002900000224FF001084FF0030A4FF00F090BF155
:1002A000040E00BF0B6808FA02F42340A3426ED18B
:1002B0004D68022D01D0122D0ED1D50800EB850C12
:1002C000DCF820505607F70E09FA07F6B5430E6919
:1002D000BE402E43CCF82060066855000F790AFA1C
:1002E00005FC07F0030726EA0C06AF40374307601A
:1002F0004E68012E05D0022E03D0112E01D0122EF1
:100300000ED18668CF6826EA0C06AF403743876077
:100310004668A6430C79C4F3001494403443446007
:10032000C6688C6826EA0C06AC403443C4604C684E
:10033000E40065D5364C256845F480452560246881
:1003400022F0030504F480440094324C2E19D6F8B0
:10035000084895072F0F09FA07F5AC432E4DA84220
:1003600001D1002524E02D4DA84201D101251FE037
:100370002B4DA84201D102251AE02A4DA84201D1F5
:10038000032515E0284DA84202D1042510E037E0EE
:10039000264DA84201D105250AE0254DA84201D1EC
:1003A000062505E0234DA84201D1072500E00825D8
:1003B000BD402543C6F80858DBF800405D464E684E
:1003C0009C43F60300D51C432C60DEF800407546C4
:1003D0004E689C43B60300D51C432C600B4D08357A
:1003E0002C684E689C43F60200D51C432C60074DD8
:1003F0000C352C684E689C43B60200D51C432C601B
:10040000521C102AFFF44EAFBDE8F88F003C0140AB
:100410004438024000300140000002400004024025
:1004200000080240000C024000100240001402408C
:1004300000180240001C024001488068704700001C
:1004400000000020024881680278114481607047F2
:10045000000000200B4810B5016841F400710160F4
:10046000016841F480610160016841F480710160BC
:10047000032000F08BF8002000F006F800F024F8CC
:10048000002010BD003C024070B50D4D04464FF4F5
:100490007A712878B1FBF0F00A490968B1FBF0F0F5
:1004A00000F0EFFA48B9102C07D200222146501E66
:1004B00000F04CF800206C6070BD012070BD0000A1
:1004C000000000200C0000201F4808B5016841F41E
:1004D00080410160006800F4804000901A48001FCD
:1004E000016841F080510160006800F08050009088
:1004F000032000F04BF8002211466FF00B0000F0D3
:1005000025F8002211466FF00A0000F01FF80022C3
:1005100011466FF0090000F019F800221146501F33
:1005200000F014F800221146101F00F00FF800220E
:100530001146901E00F00AF80022BDE8084011465E
:10054000501E00F003B8000044380240F0B40E4BD7
:100550001B680C46C3F30223C3F10705042D00D921
:100560000425191D072901D2002300E0DB1E012606
:1005700006FA05F1491E214099409E40761E16401C
:100580003143F0BC00F076BC0CED00E0064900F011
:10059000070208684FF6FF03184040EA0220034AAA
:1005A00010430860704700000CED00E00000FA0501
:1005B0002DE9F0470E46050065D0DFF81481D8F824
:1005C0000000F7B200F00F00B04207D288F80070C8
:1005D000D8F8000000F00F00B04254D128683D4C1C
:1005E000810712D5400703D5206840F4E050206011
:1005F0002878000703D5206840F460402060206818
:10060000A96820F0F000084320602878C0072DD0AA
:10061000304968680839012812D0022813D003280D
:1006200011D00968890700292DDA216821F003011A
:1006300001432160FFF700FF814641F2883A0EE056
:1006400009688903EFE709688901ECE7FFF7F4FE21
:10065000A0EB0901514502D90320BDE8F0872068CD
:10066000696800F00C00B0EB810FEFD1D8F80010F2
:10067000404601F00F01B14207D90770006800F051
:100680000F00B04201D00120E7E72878400705D5E8
:100690002068E96820F4E0500843206028780007CB
:1006A00006D52068296920F4604040EAC100206036
:1006B00000F01CF82168084AC1F30311515CC840DE
:1006C000064908600020FFF7DFFE0020C5E70000B4
:1006D000003C024008380240E81200080C000020EC
:1006E00001480068704700000C000020154810B554
:1006F000006810F00C02144813D04110042A0FD0E7
:10070000082A0ED10F4C241F2268236802F03F02F2
:100710005B0207D52068C0F38810A0FB010106E04A
:10072000084610BD2168C1F38811A1FB0001002318
:10073000FFF746FD2168C1F30141491C4900B0FBA8
:10074000F1F010BD083802400024F4002DE9F84F04
:10075000050076D02878DFF8F8B2BE4CC00749D043
:10076000DBF800105846C1F38101012908D0006868
:10077000C0F3810002280AD1201D0068400206D57E
:100780002068800336D568680028E2D032E06868C7
:10079000B0F5803F10D0B0F5A02F206810D020F425
:1007A00080302060206820F4802020606868A0B13C
:1007B000FFF742FE06460CE0206840F48030F4E784
:1007C00040F480202060F7E7FFF736FE801B6428A6
:1007D00073D820688003F7D50CE0FFF72DFE06469E
:1007E00005E000BFFFF728FE801B6428F0D82068D2
:1007F0008003F7D42878DFF8608280074FF0000983
:100800003ED5DBF80010584611F00C0F09D00068F7
:10081000C0F3810002280BD18D48001F0068400200
:1008200006D42068800715D5E868012809D111E0B1
:10083000E868B8B10120C8F80000FFF7FDFD0646E2
:1008400005E002E1FFF7F8FD801B0228C0D8206810
:100850008007F7D52068296920F0F80040EAC10038
:1008600020600DE0C8F80090FFF7E6FD064604E0C2
:10087000FFF7E2FD801B02281FD820688007F7D40D
:100880002878000722D5724E744869696C3671B1B8
:1008900001210160FFF7D0FD074604E0FFF7CCFD22
:1008A000C01B022809D830688007F7D50EE0C0F8D1
:1008B0000090FFF7C1FD074605E083E0FFF7BCFDB0
:1008C000C01B02287ED830688007F7D428784007FC
:1008D00068D5DFF87CA100270AF1380ADAF80000B1
:1008E000C0000BD4DAF8001041F08051CAF80010B3
:1008F000DAF80000012700F080500090584E306870
:10090000C00510D4306840F480703060FFF794FD6B
:10091000009005E0FFF790FD0099401A022851D899
:100920003068C005F6D54A4EA868683601280FD051
:100930000528306810D020F001003060306820F0C9
:1009400004003060A868B8B1FFF776FD00900FE0B2
:10095000306840F00100F4E740F004003060F7E751
:10096000FFF76AFD0099411A41F28830814264D84C
:1009700030688007F4D50EE0FFF75EFD009007E0D9
:10098000FFF75AFD0099411A41F28830814254D84C
:1009900030688007F4D42FB1DAF8001021F08051CC
:1009A000CAF80010A869C0B3DBF80010C1F38101D8
:1009B00002294AD00228484607D0C8F86000FFF74D
:1009C0003BFD00E039E005463AE04746C8F86000E4
:1009D000FFF732FD064604E0FFF72EFD801B0228DC
:1009E0002BD820688001F7D4D5E907010843A96A0C
:1009F0001C4A490802EB01416A6A41EA8211084334
:100A000095F82C1040EA01611148001F0160012097
:100A10003866FFF711FD054605E014E0FFF70CFD11
:100A2000401B022809D820688001F7D50BE000BFE1
:100A3000FFF702FD401B022802D90320BDE8F88F12
:100A400020688001F4D40020F8E70120F6E70000D8
:100A5000083802400038024000004742800E4742FA
:100A6000007000400000FFFF4FF0E02104280869FB
:100A700003D020F004000861704740F00400FAE75A
:100A8000704710B5401EB0F1807F01D3012010BD2A
:100A90004FF0E02460610F21601700F0EBF90020B7
:100AA000A06107202061002010BD10B5FFF7E8FF0E
:100AB00010BD30B590F83820012A20D0012280F8EE
:100AC0003820022380F8393003685C6824F0700411
:100AD0005C6003685C680D682C435C6003689C681C
:100AE00024F080049C6003689C6849680C439C6007
:100AF00080F83920002180F83810084630BD0220E7
:100B000030BD10B5040003D094F8390010B107E0EF
:100B1000012010BD002084F83800204600F00CF8B9
:100B2000022084F83900211D206800F037FA0120E6
:100B300084F83900002010BD08B5006806498842D5
:100B400008D10648016841F004010160006800F026
:100B50000400009008BD000000080040403802403A
:100B600070B5044690F83800012817D0012584F8A4
:100B70003850022084F839002068826822F0770219
:100B800022F47F4282600868502837D00DDC20288C
:100B900059D005DC88B3102841D151E0022070BD46
:100BA000302853D040283AD13FE060282ED070281A
:100BB0000BD0B0F5805F03D0B0F5005F2FD110E00F
:100BC0002068816821F0070115E0CB68D1E9012197
:100BD000206800F04EFA2168886840F0770088604D
:100BE0001DE0CB68D1E90121206800F042FA2068BD
:100BF000816841F48041816011E01EE0CA68496863
:100C0000206800F0FFFA5021206806E0CA684968B1
:100C1000206800F008FB6021206800F034FA84F8B6
:100C20003950002084F8380070BDCA6849682068CF
:100C300000F0E8FA40212068EFE700212068ECE7A7
:100C400010212068E9E720212068E6E730212068AC
:100C5000E3E7000000B50068094985B088420CD17F
:100C60004FF47040009002200021CDE90101CDE950
:100C7000031069460348FFF707FB05B000BD0000FD
:100C800000080040000C024070B5044690F838009F
:100C90000D4601280DD0012684F83860022084F822
:100CA000390042B1042A18D0082A2AD00C2A4DD182
:100CB00039E0022070BD206800F0EEF920688169FB
:100CC00041F0080181612068816921F0040181619E
:100CD000206881692A69114311E0206800F008FA50
:100CE0002068816941F4006181612068816921F493
:100CF00080618161206881692A6941EA02218161FC
:100D000024E0206800F026FA2068C16941F008015B
:100D1000C1612068C16921F00401C1612068C16915
:100D20002A69114311E0206800F044FA2068C16983
:100D300041F40061C1612068C16921F48061C16131
:100D40002068C1692A6941EA0221C16184F83960D9
:100D5000002084F8380070BD10B5040003D094F86A
:100D6000390010B107E0012010BD002084F83800E0
:100D7000204600F00CF8022084F83900211D20687C
:100D800000F00CF9012084F83900002010BD7047F4
:100D900010B504460068012200F060F90849206897
:100DA000884202D00749884203D1416C41F4004196
:100DB00041642068016841F001010160002010BD1C
:100DC0000000014000040140FEE7000010B5274884
:100DD0008EB0254901604AF20F410024C0E9011498
:100DE00040F2CF71C0E90314FFF78BFE00B1FEE7BC
:100DF0004FF48050079007A91C48FFF7B1FE00B1DF
:100E0000FEE71A48FFF7A8FF00B1FEE70B940BA915
:100E100016480C94FFF74DFE00B1FEE76020CDE9C7
:100E2000000402940022694610480494FFF72CFF46
:100E300000B1FEE7042269460C48FFF725FF00B128
:100E4000FEE7082269460948FFF71EFF00B1FEE7EA
:100E50000C2269460548FFF717FF00B1FEE703487B
:100E6000FFF7F8FE0EB010BD000800401000002093
:100E7000FEE770470907090E002806DA00F00F00A8
:100E800000F1E02080F8141D704700F1E02080F8A8
:100E9000001470477047704710B5FFF7D3FABDE8EC
:100EA0001040FFF702BE000030B5254893B0002582
:100EB000016841F080510160006800F0805011909D
:100EC0002048016841F4804101600068022400F478
:100ED000804011900120039010200490009406940B
:100EE0000820CDE90750A820CDE9090404200B9083
:100EF0006846FFF72BFC00B1FEE70CA90F2081E844
:100F000031004FF4A0500F904FF480501090052105
:100F10000CA8FFF74DFB00B1FEE7FFF7E1FB4FF434
:100F20007A71B0FBF1F0FFF7ACFD0420FFF79CFDF8
:100F300000221146501EFFF709FB13B030BD000020
:100F400040380240007000401048016841F47001D0
:100F500001600F48016841F0010101600C4A002165
:100F60000832116002680B4B1A400260031D0A4AE6
:100F70001A60026822F48022026005480C30016089
:100F800002495806803908607047000088ED00E08B
:100F900000380240FFFFF6FE10300024F0B5026872
:100FA000234B244D244E254F254C4FF0804C984226
:100FB00009D0604507D0A84205D0B04203D0B8425E
:100FC00001D0A04204D122F0700E4A6842EA0E021B
:100FD00098421BD0604519D0A84217D0B04215D016
:100FE000B84213D0A04211D0164DA8420ED0164DD3
:100FF000A8420BD0154DA84208D0154DA84205D0E7
:10100000144DA84202D0144DA84203D122F44075D9
:10101000CA682A4302608A68C2620A688262984289
:1010200001D0A04201D10969016301214161F0BDF4
:10103000000001400004004000080040000C004097
:1010400000040140004001400044014000480140CC
:1010500000180040001C00400020004010B5012393
:10106000046A8B409C430462036A8A401343036210
:1010700010BD10B5846842EA032224F47F440A4379
:101080002243826010BD826822F070020A4342F05F
:10109000070181607047000030B5026A22F001024A
:1010A0000262026A436884690D6824F07304254370
:1010B00022F002048A6822430B4CA04202D00B4C5F
:1010C000A0420BD122F00804CA6823F440732243E3
:1010D0004C6922F004021C438B6923434360856101
:1010E00049684163026230BD0000014000040140D4
:1010F00030B5026A22F010020262026A4368846913
:101100000D6824F4E64444EA05248D6822F02002A8
:1011100042EA05120D4DA84202D00D4DA8420ED153
:10112000CD6822F0800242EA05124D6923F4406343
:1011300043EA85038D6922F0400243EA8503436058
:10114000846149688163026230BD00000000014093
:101150000004014030B5026A22F480720262036A20
:101160004268C46923F4007324F073050C682C43AF
:101170008D6843EA05230D4DA84202D00C4DA842CC
:101180000ED1CD6823F4006343EA05234D6922F4B0
:10119000405242EA05128D6923F4806342EA051247
:1011A0004260C4614968C163036230BD0000014010
:1011B0000004014030B5026A22F480520262046ADF
:1011C0004268C3690D6823F4E64343EA05238D684A
:1011D00024F4005444EA0534084DA84202D0084DD6
:1011E000A84204D14D6922F4804242EA851242604D
:1011F000C36149680164046230BD00000000014021
:101200000004014010B5036A046A24F0010404627A
:10121000846924F0F00444EA021423F00A020A4329
:101220008461026210BD10B5036A23F010030362EB
:101230008369046A23F4704343EA023224F0A00372
:1012400043EA01118261016210BDFEE702E008C8B5
:10125000121F08C1002AFAD170477047002001E030
:1012600001C1121F002AFBD17047000008B5FFF72B
:10127000F1F8FFF719FE1A48016841F0800101609A
:10128000016801F080010091016841F008010160EE
:10129000006800F008000090FFF798FD0021114859
:1012A000FFF776FD04210F48FFF772FD08210D4876
:1012B000FFF76EFD0C210B48FFF76AFD094840F26D
:1012C000F31102685163026840F2E73191630068EC
:1012D00040F2DB51C16340F2CF710164FEE70000D0
:1012E0003038024010000020000000000000000024
:1012F0000102030406070809181300080000002073
:10130000100000004C1200082813000810000020F4
:10131000400400005C120008010000001000000002
:08132000000000000024F400AD
:040000050800018965
:00000001FF
