:020000040800F2
:10000000700400209D010008DF100008FD0F0008AB
:10001000DD100008A9020008191300080000000004
:100020000000000000000000000000003B1200087B
:10003000AB02000800000000011100083D1200089A
:10004000B7010008B7010008B7010008B7010008B0
:10005000B7010008B7010008B7010008B7010008A0
:10006000B7010008B7010008B7010008B701000890
:10007000B7010008B7010008B7010008B701000880
:10008000B7010008B7010008B7010008B701000870
:10009000B7010008B7010008B7010008B701000860
:1000A000B7010008B7010008B7010008B701000850
:1000B000B7010008B7010008B7010008B701000840
:1000C000B7010008B7010008B7010008B701000830
:1000D000B7010008B7010008B7010008B701000820
:1000E000B7010008B7010008B7010008B701000810
:1000F000B7010008B7010008B7010008B701000800
:10010000B7010008B7010008B7010008B7010008EF
:10011000B7010008B7010008B7010008B7010008DF
:10012000B7010008B7010008B7010008B7010008CF
:10013000B7010008B7010008B7010008B7010008BF
:10014000B7010008B7010008B7010008B7010008AF
:10015000B7010008B7010008B7010008B70100089F
:10016000B7010008B7010008B7010008B70100088F
:10017000B7010008B7010008B7010008000000003F
:10018000B7010008B7010008DFF80CD000F07AF8DA
:1001900000480047391300087004002006488047D3
:1001A00006480047FEE7FEE7FEE7FEE7FEE7FEE75C
:1001B000FEE7FEE7FEE7FEE7C5120008890100083A
:1001C0002DE9F05F0546002092469B46884606468C
:1001D000814640241BE0284641464746224600F01F
:1001E00041F853465A46C01A914110D31146184659
:1001F000224600F028F82D1A67EB01084F462246E8
:100200000120002100F01FF817EB00094E41201ECD
:10021000A4F10104DFDC484631462A464346BDE8E6
:10022000F09FD2B201E000F8012B491EFBD27047CB
:100230000022F6E710B513460A4604461946FFF7B2
:10024000F0FF204610BD202A04DB203A00FA02F11C
:10025000002070479140C2F1200320FA03F31943B4
:1002600090407047202A04DB203A21FA02F0002156
:10027000704721FA02F3D040C2F1200291400843B6
:1002800019467047064C074D06E0E06840F0010350
:1002900094E8070098471034AC42F6D3FFF778FF94
:1002A0004014000860140008FEE7704770B504466B
:1002B00000F0ECF80546601C02D0044800780444C5
:1002C00000F0E4F8401BA042FAD370BD0800002003
:1002D0002DE9F84FDFF87CB100224FF001084FF014
:1002E000030A4FF00F090BF1040E00BF0B6808FA68
:1002F00002F42340A3426ED14D68022D01D0122D8D
:100300000ED1D50800EB850CDCF820505607F70E0F
:1003100009FA07F6B5430E69BE402E43CCF82060BB
:10032000066855000F790AFA05FC07F0030726EA6C
:100330000C06AF40374307604E68012E05D0022EF1
:1003400003D0112E01D0122E0ED18668CF6826EA76
:100350000C06AF40374387604668A6430C79C4F368
:100360000014944034434460C6688C6826EA0C0646
:10037000AC403443C4604C68E40065D5364C256815
:1003800045F480452560246822F0030504F4804488
:100390000094324C2E19D6F8084895072F0F09FA09
:1003A00007F5AC432E4DA84201D1002524E02D4D88
:1003B000A84201D101251FE02B4DA84201D1022501
:1003C0001AE02A4DA84201D1032515E0284DA84284
:1003D00002D1042510E037E0264DA84201D10525C1
:1003E0000AE0254DA84201D1062505E0234DA8428B
:1003F00001D1072500E00825BD402543C6F808586F
:10040000DBF800405D464E689C43F60300D51C4374
:100410002C60DEF8004075464E689C43B60300D55C
:100420001C432C600B4D08352C684E689C43F6022B
:1004300000D51C432C60074D0C352C684E689C433E
:10044000B60200D51C432C60521C102AFFF44EAF9C
:10045000BDE8F88F003C01404438024000300140C4
:10046000000002400004024000080240000C02406C
:10047000001002400014024000180240001C02401C
:100480000AB1816170470904FBE7000001488068F8
:10049000704700000800002002488168027811447B
:1004A00081607047080000200B4810B5016841F4D6
:1004B00000710160016841F480610160016841F4EC
:1004C00080710160032000F061F8002000F006F860
:1004D00000F024F8002010BD003C024070B50D4D26
:1004E00004464FF47A712878B1FBF0F00A490968A4
:1004F000B1FBF0F000F06EFD48B9102C07D20022DD
:100500002146501E00F022F800206C6070BD0120D2
:1005100070BD000008000020140000200A4808B543
:10052000016841F480410160006800F4804000905F
:100530000548001F016841F080510160006800F02B
:100540008050009008BD000044380240F0B40E4BCB
:100550001B680C46C3F30223C3F10705042D00D921
:100560000425191D072901D2002300E0DB1E012606
:1005700006FA05F1491E214099409E40761E16401C
:100580003143F0BC00F0ACBD0CED00E0064900F0DA
:10059000070208684FF6FF03184040EA0220034AAA
:1005A00010430860704700000CED00E00000FA0501
:1005B0002DE9F0470E46050065D0DFF81481D8F824
:1005C0000000F7B200F00F00B04207D288F80070C8
:1005D000D8F8000000F00F00B04254D128683D4C1C
:1005E000810712D5400703D5206840F4E050206011
:1005F0002878000703D5206840F460402060206818
:10060000A96820F0F000084320602878C0072DD0AA
:10061000304968680839012812D0022813D003280D
:1006200011D00968890700292DDA216821F003011A
:1006300001432160FFF72AFF814641F2883A0EE02C
:1006400009688903EFE709688901ECE7FFF71EFFF6
:10065000A0EB0901514502D90320BDE8F0872068CD
:10066000696800F00C00B0EB810FEFD1D8F80010F2
:10067000404601F00F01B14207D90770006800F051
:100680000F00B04201D00120E7E72878400705D5E8
:100690002068E96820F4E0500843206028780007CB
:1006A00006D52068296920F4604040EAC100206036
:1006B00000F016F82168084AC1F30311515CC840E4
:1006C000064908600020FFF709FF0020C5E7000089
:1006D000003C02400838024030140008140000209A
:1006E000154810B5006810F00C02144813D04110E2
:1006F000042A0FD0082A0ED10F4C241F2268236829
:1007000002F03F025B0207D52068C0F38810A0FB0F
:10071000010106E0084610BD2168C1F38811A1FB64
:1007200000010023FFF74CFD2168C1F30141491C82
:100730004900B0FBF1F010BD083802400024F4007D
:100740002DE9F84F050076D02878DFF8F8B2BE4CD6
:10075000C00749D0DBF800105846C1F381010129D8
:1007600008D00068C0F3810002280AD1201D00686B
:10077000400206D52068800336D568680028E2D09C
:1007800032E06868B0F5803F10D0B0F5A02F206847
:1007900010D020F480302060206820F48020206079
:1007A0006868A0B1FFF772FE06460CE0206840F4CE
:1007B0008030F4E740F480202060F7E7FFF766FE22
:1007C000801B642873D820688003F7D50CE0FFF7FE
:1007D0005DFE064605E000BFFFF758FE801B64285B
:1007E000F0D820688003F7D42878DFF8608280078B
:1007F0004FF000093ED5DBF80010584611F00C0F01
:1008000009D00068C0F3810002280BD18D48001F79
:100810000068400206D42068800715D5E8680128E2
:1008200009D111E0E868B8B10120C8F80000FFF76D
:100830002DFE064605E002E1FFF728FE801B022898
:10084000C0D820688007F7D52068296920F0F80013
:1008500040EAC10020600DE0C8F80090FFF716FEE6
:10086000064604E0FFF712FE801B02281FD820680E
:100870008007F7D42878000722D5724E744869693A
:100880006C3671B101210160FFF700FE074604E0FC
:10089000FFF7FCFDC01B022809D830688007F7D598
:1008A0000EE0C0F80090FFF7F1FD074605E083E099
:1008B000FFF7ECFDC01B02287ED830688007F7D414
:1008C0002878400768D5DFF87CA100270AF1380AAC
:1008D000DAF80000C0000BD4DAF8001041F08051C3
:1008E000CAF80010DAF80000012700F080500090EC
:1008F000584E3068C00510D4306840F480703060C5
:10090000FFF7C4FD009005E0FFF7C0FD0099401A15
:10091000022851D83068C005F6D54A4EA868683616
:1009200001280FD00528306810D020F00100306079
:10093000306820F004003060A868B8B1FFF7A6FD69
:1009400000900FE0306840F00100F4E740F0040050
:100950003060F7E7FFF79AFD0099411A41F28830BD
:10096000814264D830688007F4D50EE0FFF78EFD31
:10097000009007E0FFF78AFD0099411A41F28830A4
:10098000814254D830688007F4D42FB1DAF80010CF
:1009900021F08051CAF80010A869C0B3DBF800103C
:1009A000C1F3810102294AD00228484607D0C8F87D
:1009B0006000FFF76BFD00E039E005463AE047468E
:1009C000C8F86000FFF762FD064604E0FFF75EFD31
:1009D000801B02282BD820688001F7D4D5E90701B5
:1009E0000843A96A1C4A490802EB01416A6A41EAC4
:1009F0008211084395F82C1040EA01611148001F4C
:100A0000016001203866FFF741FD054605E014E06E
:100A1000FFF73CFD401B022809D820688001F7D56C
:100A20000BE000BFFFF732FD401B022802D9032074
:100A3000BDE8F88F20688001F4D40020F8E7012099
:100A4000F6E7000008380240003802400000474244
:100A5000800E4742007000400000FFFF70B50400A8
:100A600005D00025A56294F8510010B106E00120E0
:100A700070BD84F85050204600F030F8022084F811
:100A800051002068016821F040010160D4E90101B2
:100A90000843D4E903121143084361690843218BD9
:100AA00001F400710843E1690843216A0843A16A1F
:100AB000084321680860A069042101EA1040616AC6
:100AC0000843216848602068C16921F40061C16160
:100AD0006565012084F85100002070BD10B586B016
:100AE000044614216846FFF7A3FB13492068884297
:100AF00020D112480021026842F48052026000684E
:100B000000F4805005900D481438026842F001024C
:100B10000260006800F001000590E02000900220D3
:100B2000CDE90101032003900520049069460448A3
:100B3000FFF7CEFB06B010BD003001404438024044
:100B4000000002402DE9F84F044640680026984610
:100B500017460D464FF00409B0F5827F01D1A06819
:100B600090B194F85000012819D04FF0010B84F88F
:100B700050B0FFF78BFC009094F851004FF0000A42
:100B800001280ED002267FE084F8519013460A46D1
:100B90002046CDF8008000F031F9BDE8F88F022042
:100BA000FBE7002D6FD0002F6DD084F85190C4F872
:100BB00054A0A563A787E787C4F830A0A4F834A0A1
:100BC000A4F836A0C4F840A0C4F844A0A0684FF42C
:100BD0000047B84204D12068016821F480410160D7
:100BE00020680168490603D4016841F040010160B2
:100BF000E068B8B133E020688168C90706D0007B9F
:100C000005F8010BE08F401EE0870BE0B8F1000F04
:100C100023D0B8F1FF3F05D0FFF738FC0099411A07
:100C200041451AD2E08F0028E5D11BE02068816899
:100C3000C90706D0C06825F8020BE08F401EE08788
:100C40000DE0B8F1000F08D0B8F1FF3F07D0FFF773
:100C50001DFC0099411A414501D3032614E0E08FA1
:100C60000028E3D16068B0F5827F0AD1A068B8425D
:100C700002D0B0F5806F04D12068016821F04001F6
:100C80000160606D00B1012684F851B084F850A075
:100C9000304682E72DE9F84F044690F850000026D0
:100CA000994617460D4601280DD04FF0010B84F8E8
:100CB00050B0FFF7EBFB804694F85100B246012894
:100CC00004D0022694E00220BDE8F88F002D7BD0EE
:100CD000002F79D0032084F85100C4F854A0256374
:100CE000A786E786C4F838A0A4F83CA0A4F83EA0E4
:100CF000C4F844A0C4F840A0A068B0F5004F04D1E7
:100D00002068016841F4804101602068016849065B
:100D100003D4016841F040010160E068B0F5006F64
:100D2000606804D030B3E08E012823D03EE010B1DB
:100D3000E08E01281AD135F8021B206805E02068F2
:100D40008168890706D535F8021BC160E08E401E18
:100D5000E0860BE0B9F1000F34D0B9F1FF3F05D0C8
:100D6000FFF794FBA0EB080149452BD2E08E002849
:100D7000E5D11EE0216815F8010B087306E0206834
:100D80008168890706D515F8011B0173E08E401EA6
:100D9000E0860BE0B9F1000F14D0B9F1FF3F05D0A8
:100DA000FFF774FBA0EB080149450BD2E08E002849
:100DB000E5D14B46012202212046CDF8008000F00B
:100DC000F1F910B1032613E011E0424649462046EE
:100DD00000F097F918B101262020606508E0A068AE
:100DE00018B92068C16880680090606D00B1012664
:100DF00084F851B084F850A0304665E72DE9F84FEB
:100E0000044690F8500000260A9F9A4693460D46E5
:100E10004FF0010801280ED0012084F85000FFF7A0
:100E200035FB814694F85100616801280CD0B1F57A
:100E3000827F07D102E00220BDE8F88FA16809B9DE
:100E4000042801D00226BDE055B1BBF1000F07D048
:100E5000BAF1000F04D094F85100012802D004E048
:100E60000126AFE0052084F8510000206065C4F839
:100E700038B0A4F83EA0A4F83CA02563A4F836A09E
:100E8000A4F834A02064606420680168490603D493
:100E9000016841F040010160E068B0F5006F6068F2
:100EA00004D0E8B3E08E01283BD06AE010B1E08EB8
:100EB00001282ED1216835F8020BC860E08E401E53
:100EC000E08626E0B8F1000F0DD0E08E58B1206822
:100ED0008168890707D535F8021BC160E08E401E86
:100EE000E0864FF00008E08F58B120688168C9079C
:100EF00007D0C0682BF8020BE08F401EE0874FF050
:100F00000108781C05D0FFF7C1FAA0EB0900B84230
:100F100046D2E08E0028D5D1E08F0028D2D136E02D
:100F2000FFE7216815F8010B0873E08E401EE0868C
:100F300027E000BFB8F1000F0DD0E08E58B1206857
:100F40008168890707D515F8011B0173E08E401EE3
:100F5000E0864FF00008E08F58B120688168C9072B
:100F600007D0C0680BF8010BE08F401EE0874FF000
:100F70000108781C05D0FFF789FAA0EB0900B842F8
:100F80000ED2E08E0028D5D1E08F0028D2D13B468A
:100F9000012202212046CDF8009000F003F908B1AB
:100FA00003260FE04A463946204600F0AAF818B159
:100FB00001262020606505E0A06818B92068C16896
:100FC00080680090012084F85100002084F85000CF
:100FD000304631E710B5401EB0F1807F01D30120CB
:100FE00010BD4FF0E02460610F21601700F078F829
:100FF0000020A06107202061002010BDFEE7000056
:101000002DE9F04186B014216846FFF711F9234815
:101010000024016841F010010160016801F0100135
:101020000591016841F080010160016801F08001D3
:101030000591016841F001010160016801F00101C1
:101040000591016841F0080101600068144F00F04B
:1010500008000590012208213846FFF711FADFF851
:1010600044804FF47046002231464046FFF708FAAC
:10107000082000900125CDE90154694638460394C3
:10108000FFF726F90096CDE90154694640460394DE
:10109000FFF71EF906B0BDE8F081000030380240CD
:1010A00000100240000C02400B480A494FF4007245
:1010B00001604FF48271416000218160C160016173
:1010C000C0E90512C1610162416281620A21C16207
:1010D000FFF7C4BC0030014018000020FEE7704755
:1010E0000907090E002806DA00F00F0000F1E020E1
:1010F00080F8141D704700F1E02080F8001470475C
:10110000704738B50B46009204460022802100F05B
:1011100049F8002804D0606D40F02000606503208D
:1011200038BD00001CB540F080000E4C8DF8040066
:10113000002208212046FFF7A3F96423012201A918
:101140000948FFF7A7FD6423012269460648FFF717
:10115000F9FC012208212046FFF792F99DF80000D2
:101160001CBD0000001002401800002038B50B4CD8
:101170008DF800008DF80110002208212046FFF7AD
:101180007FF96423022269460548FFF783FD0122A7
:1011900008212046FFF774F938BD00000010024016
:1011A000180000202DE9F0411D4617460E46044662
:1011B000DDF8188035E0681C33D02DB1FFF766F9F3
:1011C000A0EB0800A8422CD32068416821F0E00180
:1011D00041606068B0F5827F0BD1A068B0F5004F28
:1011E00002D0B0F5806F04D12068016821F0400181
:1011F0000160A06AB0F5005F0AD1206801684DF671
:10120000FF72114001602068016841F400510160E3
:10121000012084F85100002084F850000320BDE82C
:10122000F0812068806836EA000004D00020B842CF
:10123000C1D10020F3E70120F9E77047FFF72CB98F
:1012400030B593B030216846FEF7F2FF14210CA8A8
:10125000FEF7EEFF19480025016841F0805101605A
:10126000006800F0805011901548016841F48041F9
:1012700001600068022400F4804011900120009079
:10128000000401908001CDE9064008AA0420A821AD
:1012900082E813000B906846FFF752FA0CA90F2062
:1012A00081E831004FF4A0500F90E002109005212A
:1012B0000CA8FFF77DF913B030BD000040380240A4
:1012C000007000401048016841F4700101600F484F
:1012D000016841F0010101600C4A002108321160EF
:1012E00002680B4B1A400260031D0A4A1A6002682A
:1012F00022F48022026005480C3001600249580641
:10130000803908607047000088ED00E00038024036
:10131000FFFFF6FE10300024FEE702E008C8121FAF
:1013200008C1002AFAD170477047002001E001C1CE
:10133000121F002AFBD17047FFF7B6F8FFF780FFB6
:10134000FFF75EFEFFF7B0FE374C67212079FFF70D
:101350000DFF4FF40057354D4FF400487E004FF419
:101360008059FA20FEF7A2FF0F20FFF7DBFEE070A6
:101370002920FFF7D7FE20702B20FFF7D3FE6070E7
:101380002D20FFF7CFFEA0706078411F192907D2EA
:10139000012239462846FFF773F80022414609E04A
:1013A000C938312809D8012241462846FFF768F894
:1013B000002239462846FFF763F82078411F192993
:1013C00007D2012231462846FFF75AF80022494643
:1013D00009E0C938312809D8012249462846FFF7D3
:1013E0004FF8002231462846FFF74AF86078401F40
:1013F000FB2809D3002241462846FFF741F8002286
:1014000039462846FFF73CF82078401FFB28A8D330
:10141000002249462846FFF733F800223146284685
:10142000FFF72EF89DE7000000000020000C0240AE
:101430000000000000000000010203040607080984
:101440006014000800000020180000001A130008B3
:101450007814000818000020580400002A1300081F
:10146000000000002000000001000000100000004B
:08147000000000000024F4005C
:040000050800018965
:00000001FF
