:020000040800F2
:10000000F07900209D0100084316000895150008AE
:10001000411600088B030008D52C000800000000E2
:10002000000000000000000000000000FB160008B7
:100030003504000800000000F9160008FD1600084D
:10004000B7010008B7010008B7010008B7010008B0
:10005000B7010008B7010008B7010008B7010008A0
:10006000B7010008B7010008B7010008B701000890
:10007000B7010008B7010008B7010008B701000880
:10008000B7010008B7010008B7010008B701000870
:10009000B7010008B7010008B7010008B701000860
:1000A000B7010008B7010008B7010008B701000850
:1000B000B7010008B7010008B7010008B701000840
:1000C000B7010008B7010008B7010008B701000830
:1000D000B7010008B7010008B7010008B701000820
:1000E000B7010008B7010008B7010008B701000810
:1000F000B7010008B7010008B7010008B701000800
:10010000B7010008B7010008B7010008B7010008EF
:10011000B7010008B7010008B7010008B7010008DF
:10012000B7010008B7010008B7010008B7010008CF
:10013000B7010008B7010008B7010008B7010008BF
:10014000B7010008B7010008B701000865160008EC
:10015000B7010008B7010008B7010008B70100089F
:10016000B7010008B7010008B7010008B70100088F
:10017000B7010008B7010008B7010008000000003F
:10018000B7010008B7010008DFF80CD000F0C0F894
:1001900000480047FD2E0008F079002006488047FF
:1001A00006480047FEE7FEE7FEE7FEE7FEE7FEE75C
:1001B000FEE7FEE7FEE7FEE7851700088901000875
:1001C0002DE9F05F0546002092469B46884606468C
:1001D000814640241BE0284641464746224600F01F
:1001E00086F853465A46C01A914110D31146184614
:1001F000224600F06DF82D1A67EB01084F462246A3
:100200000120002100F064F817EB00094E41201E88
:10021000A4F10104DFDC484631462A464346BDE8E6
:10022000F09F40EA01039B0703D009E008C9121FB1
:1002300008C0042AFAD203E011F8013B00F8013BA0
:10024000521EF9D27047D2B201E000F8012B491ECC
:10025000FBD270470022F6E710B513460A46044663
:100260001946FFF7F0FF204610BD421C10F8011B95
:100270000029FBD1801A7047034611F8012B00F8C2
:10028000012B002AF9D118467047000070B50F4DB8
:1002900000B92868002412E00A4602E09E4203D01A
:1002A000521C1378002BF9D1DAB2224305D02BB1BE
:1002B00024B1002100F8011B04E00446401C06782C
:1002C000002EE9D12860204670BD00006C0100209E
:1002D000202A04DB203A00FA02F100207047914006
:1002E000C2F1200320FA03F3194390407047202AFB
:1002F00004DB203A21FA02F00021704721FA02F3D0
:10030000D040C2F1200291400843194670470000D6
:10031000064C074D06E0E06840F0010394E8070052
:1003200098471034AC42F6D3FFF732FFCC2F0008C9
:10033000EC2F000870B58C1810F8015B15F007035E
:1003400001D110F8013B2A1106D110F8012B03E06E
:1003500010F8016B01F8016B5B1EF9D12B0705D476
:100360000023521E0DD401F8013BFAE710F8013BBF
:10037000CB1A921C03E013F8015B01F8015B521EDB
:10038000F9D5A142D8D3002070BDFEE70020704708
:100390000020704710B500220449054801F0ECFA2E
:1003A0000449034801F0E2FA002010BDF0110020DA
:1003B000DC010020F009002038B504460FA02146DA
:1003C000006800900E4801F0D1FA0D4801F0B2FA31
:1003D00069462046FFF75AFF01000CD00948FFF795
:1003E0004BFF08480078A0F13001092901D202F042
:1003F0002FFD002038BD022038BD00000A0000009B
:10040000DC010020AA010020094A10B5D2F8182208
:10041000D2F814220AB1012010BD0A460146044850
:1004200001F0AAFABDE81040014801F0E5BA000069
:10043000DC0100207047704770B5044600F0ECF80E
:100440000546601C02D004480078044400F0E4F83B
:10045000401BA042FAD370BD440000202DE9F84FA4
:10046000DFF87CB100224FF001084FF0030A4FF093
:100470000F090BF1040E00BF0B6808FA02F42340C9
:10048000A3426ED14D68022D01D0122D0ED1D50898
:1004900000EB850CDCF820505607F70E09FA07F63A
:1004A000B5430E69BE402E43CCF820600668550067
:1004B0000F790AFA05FC07F0030726EA0C06AF409D
:1004C000374307604E68012E05D0022E03D0112E4F
:1004D00001D0122E0ED18668CF6826EA0C06AF40F6
:1004E000374387604668A6430C79C4F300149440F0
:1004F00034434460C6688C6826EA0C06AC4034433A
:10050000C4604C68E40065D5364C256845F48045E8
:100510002560246822F0030504F480440094324CE2
:100520002E19D6F8084895072F0F09FA07F5AC439E
:100530002E4DA84201D1002524E02D4DA84201D125
:1005400001251FE02B4DA84201D102251AE02A4DBA
:10055000A84201D1032515E0284DA84202D1042567
:1005600010E037E0264DA84201D105250AE0254DCF
:10057000A84201D1062505E0234DA84201D1072557
:1005800000E00825BD402543C6F80858DBF80040C8
:100590005D464E689C43F60300D51C432C60DEF894
:1005A000004075464E689C43B60300D51C432C6042
:1005B0000B4D08352C684E689C43F60200D51C4351
:1005C0002C60074D0C352C684E689C43B60200D554
:1005D0001C432C60521C102AFFF44EAFBDE8F88F6C
:1005E000003C01404438024000300140000002401D
:1005F0000004024000080240000C024000100240CB
:100600000014024000180240001C02400AB181613F
:1006100070470904FBE7000001488068704700004C
:1006200044000020024881680278114481607047CC
:10063000440000200B4810B5016841F400710160CE
:10064000016841F480610160016841F480710160DA
:10065000032000F06DF8002000F006F800F024F808
:10066000002010BD003C024070B50D4D04464FF413
:100670007A712878B1FBF0F00A490968B1FBF0F013
:1006800000F074FF48B9102C07D200222146501EFA
:1006900000F02EF800206C6070BD012070BD0000DD
:1006A00044000020500000200A4808B5016841F4C9
:1006B00080410160006800F4804000900548001F00
:1006C000016841F080510160006800F080500090A6
:1006D00008BD00004438024000F01F020121914093
:1006E0004009800000F1E020C0F8001170470000D0
:1006F000F0B40E4B1B680C46C3F30223C3F107058D
:10070000042D00D90425191D072901D2002300E07A
:10071000DB1E012606FA05F1491E214099409E4044
:10072000761E16403143F0BC00F08CBF0CED00E0AB
:10073000064900F0070208684FF6FF03184040EA38
:100740000220034A10430860704700000CED00E0EF
:100750000000FA050068416200207047F0B50068AB
:100760000023446A31B1856A4FF4827604EB154464
:100770004D1E0AE044EA024181620FE006EB830766
:10078000C7595B1C04EB1744DBB2AB42F6DB4FF4FA
:10079000807303EB810144EA024242500020F0BD25
:1007A000D0F8EC0301F050BBC1EBC10200EB8202B8
:1007B000D0F8EC03526C01F0BDBAC1EBC10200EB02
:1007C0008202D0F8EC03D2F8042201F008BBD0F882
:1007D000EC0301F03BBB10B504460A460B0601F0E2
:1007E0007F00C0EBC00104EB810101D5383101E08D
:1007F00001F5FC710870D009487094F8B80301281D
:1008000009D0012084F8B803206801F055FE0020CB
:1008100084F8B80310BD022010BD70B50A46044626
:10082000090602F07F0005D5C0EBC00104EB810191
:10083000383105E0C2EBC20104EB810101F5FC7126
:1008400000258D700870D009487094F8B80301280D
:1008500009D0012084F8B803206802F00EF884F86B
:10086000B853002070BD022070BD01F00F01C1EB34
:10087000C10100EB8100B0F8100280B2704770B582
:1008800004460D460E0601F07F00C0EBC00104EBEC
:10089000810101D5383101E001F5FC71ED090870E5
:1008A0004D708A60CB7000D0C8800025022B00D12B
:1008B0000D7194F8B803012809D0012084F8B80319
:1008C000206801F04DFD284684F8B85370BD022021
:1008D00070BD70B50C4601F07F05C5EBC50100EB9E
:1008E0008101C1F80C32C1F804220023C1F8103292
:1008F00081F8F93181F8F851036901F5FC71012B98
:1009000000D10A616206027C006803D002F016F88A
:10091000002070BD01F0F2FEFAE770B50D46044606
:10092000090605F07F0005D5C0EBC00104EB81018D
:10093000383105E0C5EBC50104EB810101F5FC711F
:1009400001228A700870E809487094F8B8030128F9
:1009500007D084F8B823206801F0C1FF680602D0F0
:1009600007E0022070BD217C04F56F72206801F061
:1009700065FF002084F8B80370BD70B50C4601F027
:100980007F05C5EBC50100EB8101CB644A64002300
:100990000B65012381F8393001F8385F0369012BB9
:1009A00000D10A616206027C006803D001F0C6FF34
:1009B000002070BD01F0A2FEFAE700002DE9F84F1B
:1009C000044600680026054602F00CF9002875D19F
:1009D000206802F030F9002870D0206802F02BF96E
:1009E000800704D52068416901F002014161206857
:1009F00002F021F9010304F56F704FF0010B4FF085
:100A0000000A00904DD5206802F0F7F8074646E04E
:100A1000F80742D0F1B2206802F005F98046C0071D
:100A200028D005EB4612C2F808BB2069012811D175
:100A3000C6EBC60004EB8001D2F8102BD1F80002FF
:100A4000C2F31202821AC1F81022D1F80422104413
:100A5000C1F80402F1B22046FFF7AFFE2069012879
:100A600008D13EB9D4F80C0220B920680121009ABF
:100A700001F0E4FE5FEA087007D5204600F0E6FAD0
:100A800005EB46110820C1F8080B5FEAC86004D5E1
:100A900005EB46111020C1F8080B7F08761C002FCB
:100AA000B6D1206802F0C7F840034FF040095ED588
:100AB000206802F09BF80746002656E0D2E1F807CE
:100AC00051D0F1B2206802F09FF88046C00724D0D0
:100AD000D5F834280BFA06F08243C5F8342805EB24
:100AE0004610C0F808B92069012807D1C6EBC60036
:100AF00004EB8000D0E9101211444164F1B22046A9
:100B0000FFF752FE2069012807D136B9E06C20B901
:100B100020680121009A01F091FE5FEA087004D577
:100B200005EB46110820C1F808095FEAC86004D542
:100B300005EB46111020C1F808095FEA486003D5AB
:100B400005EB4611C1F808995FEA887004D505EBFA
:100B500046110220C1F808095FEA086003D5314652
:100B6000204600F085FD7F08761C002FA7D1206865
:100B700002F061F800280DDAD5F8040820F0010031
:100B8000C5F80408204600F047FA2168486900F0DB
:100B900000404861206802F04EF800050BD5D5F8FA
:100BA0000808C00702D0204600F06CFA20684169AE
:100BB00001F400614161206802F03DF8C0044CD5A9
:100BC000D5F8040820F00100C5F8040810212068B9
:100BD00001F0D8FF0020FF2107E000BF05EB401225
:100BE000C2F80819C2F8081B401C62688242F5D896
:100BF0004FF0FF30C5F81808D5F81C0840F0011078
:100C0000C5F81C08206B60B1D5F8840840F00B00D3
:100C1000C5F88408D5F8440840F00B00C5F844082E
:100C20000BE0D5F8140840F00B00C5F81408D5F80F
:100C3000100840F00B00C5F81008D5F8000820F4A3
:100C4000FE60C5F80008217C2068009A01F0F6FDDE
:100C50002168486900F480504861206801F0EBFF8A
:100C600080047DD5206801F0BBFB2068C16821F4B9
:100C70007051C160206801F097FF78B10320C4F87B
:100C80001490E06000F0AEFA7749784A014491424E
:100C90000AD22068C16841F4705158E04FF40070E6
:100CA000C4F80CA0606136E07149724A0144914277
:100CB00004D22068C16841F4605148E06E496F4A2F
:100CC0000144914204D22068C16841F450513EE091
:100CD0006B496C4A0144914204D22068C16841F4D6
:100CE000405134E06849694A0144914204D2206885
:100CF000C16841F430512AE06549664A0144914295
:100D000004D22068C16841F4205120E062494218B1
:100D100062498A4204D22068C16841F4105116E049
:100D20005F49604A0144914204D22068C16841F49D
:100D300000510CE05C4908445C4988422068C16865
:100D400003D241F4E05102E00AE041F4C051C16035
:100D5000204600F051F92068416901F400514161D9
:100D6000206801F068FFC00636D52168886920F048
:100D700010008861D5F8208008F00F00C0EBC0009B
:100D800004EB8007C8F3434007F5FC77022802D044
:100D9000062812D01BE047F6F07018EA000F16D0B4
:100DA000C8F30A1290462846F96801F048FFF8682F
:100DB0004044F860B869404408E008222846009999
:100DC00001F03DFFB969C8F30A100844B861206812
:100DD000816941F010018161206801F02CFF00075A
:100DE00007D5204600F01CF92068416901F0080190
:100DF0004161206801F01FFFC00208D5F1B2204612
:100E000000F056F82068416901F4801141612068C2
:100E100001F011FF800208D5F1B2204600F04CF835
:100E20002068416901F400114161206801F003FF6D
:100E3000400007D52046FFF7B3FC2068416901F068
:100E400080414161206801F0F6FE40070AD5206824
:100E50004568680702D52046FFF7B9FC206841685D
:100E600029434160BDE8F88F405327FF00350C004F
:100E7000401E1BFF40420F0000DC0BFF804F1200A2
:100E8000808CF9FE20D6130060B6E5FE60E3160004
:100E900000D3CEFE40771B00C05BB3FEC0912100A3
:100EA00000CA91FE20753800E05459FEE09C4100D4
:100EB000D0F8EC0301F01CB8D0F8EC0301F01AB83C
:100EC000F0B58BB004004FF0000556D0032084F835
:100ED000B903204600F054F8206801F009FC04F141
:100EE000100128220F466846FFF79BF994E80F008F
:100EF00001F090FA0021206801F0B1FE01260020E7
:100F0000C5EBC50104EB810181F8396001F8385F58
:100F1000CD80C8708860C8606D1C48610F2DEFD30C
:100F200000214FF4827300BFC1EBC10204EB8202C7
:100F300003EB810582F8F90182F8F811D18782F874
:100F4000FB01C2F80002C2F80402C2F80C022268D7
:100F50005051491C0F29E7D3282239466846FFF72C
:100F600060F994E80F0001F023FB84F8B96320686E
:100F700001F012FB00200BB0F0BD0120FBE70000E8
:100F800030B5006887B0B0F1A04F2FD100244FF4E6
:100F90000070CDE90004164D694628460294FFF71B
:100FA0005DFA4FF4C05000900220CDE90104032007
:100FB00003900A20049069462846FFF74FFA0D482F
:100FC000016841F0800101600A481030016841F475
:100FD000804101600068002200F4804005901146C5
:100FE0004320FFF785FB4320FFF776FB07B030BDBA
:100FF000000002403438024010B50446C0680121A8
:1010000000B90021D4F8EC0300F0CAFFD4F8EC03D7
:10101000BDE8104000F093BFD0F8EC0300F0AEBF85
:10102000D0F8EC0300F0B0BF10B5044690F8B80358
:10103000012809D0012084F8B803206801F025FEBA
:10104000002084F8B80310BD022010BDD0F8EC23B6
:1010500000F56F71104600F0B6BF10B5044690F869
:10106000B80301280CD0012084F8B803206801F0EF
:1010700087FA206801F070FD002084F8B80310BDE5
:10108000022010BD10B50446D0F8EC0300F0E8FFD4
:101090002068D0F8001E41F00101C0F8001E206A4F
:1010A000002804D00248016841F00601016010BD2B
:1010B00010ED00E02DE9F0470E46050065D0DFF8A1
:1010C0001481D8F80000F7B200F00F00B04207D248
:1010D00088F80070D8F8000000F00F00B04254D13A
:1010E00028683D4C810712D5400703D5206840F49D
:1010F000E05020602878000703D5206840F4604065
:1011000020602068A96820F0F0000843206028785B
:10111000C0072DD0304968680839012812D002284C
:1011200013D0032811D00968890700292DDA216816
:1011300021F0030101432160FFF76EFA814641F27D
:10114000883A0EE009688903EFE709688901ECE74E
:10115000FFF762FAA0EB0901514502D90320BDE86F
:10116000F0872068696800F00C00B0EB810FEFD1C8
:10117000D8F80010404601F00F01B14207D90770BE
:10118000006800F00F00B04201D00120E7E72878A6
:10119000400705D52068E96820F4E0500843206046
:1011A0002878000706D52068296920F4604040EAC5
:1011B000C100206000F01CF82168084AC1F3031147
:1011C000515CC840064908600020FFF74DFA002036
:1011D000C5E70000003C024008380240BC2F000870
:1011E00050000020014800687047000050000020B7
:1011F000154810B5006810F00C02144813D04110C7
:10120000042A0FD0082A0ED10F4C241F226823680D
:1012100002F03F025B0207D52068C0F38810A0FBF4
:10122000010106E0084610BD2168C1F38811A1FB49
:1012300000010023FEF7C4FF2168C1F30141491CEE
:101240004900B0FBF1F010BD083802400024F40062
:101250002DE9F84F050076D02878DFF8F8B2BE4CBB
:10126000C00749D0DBF800105846C1F381010129BD
:1012700008D00068C0F3810002280AD1201D006850
:10128000400206D52068800336D568680028E2D081
:1012900032E06868B0F5803F10D0B0F5A02F20682C
:1012A00010D020F480302060206820F4802020605E
:1012B0006868A0B1FFF7B0F906460CE0206840F47A
:1012C0008030F4E740F480202060F7E7FFF7A4F9CE
:1012D000801B642873D820688003F7D50CE0FFF7E3
:1012E0009BF9064605E000BFFFF796F9801B6428CE
:1012F000F0D820688003F7D42878DFF86082800770
:101300004FF000093ED5DBF80010584611F00C0FE5
:1013100009D00068C0F3810002280BD18D48001F5E
:101320000068400206D42068800715D5E8680128C7
:1013300009D111E0E868B8B10120C8F80000FFF752
:101340006BF9064605E002E1FFF766F9801B02280B
:10135000C0D820688007F7D52068296920F0F800F8
:1013600040EAC10020600DE0C8F80090FFF754F992
:10137000064604E0FFF750F9801B02281FD82068BA
:101380008007F7D42878000722D5724E744869691F
:101390006C3671B101210160FFF73EF9074604E0A8
:1013A000FFF73AF9C01B022809D830688007F7D543
:1013B0000EE0C0F80090FFF72FF9074605E083E044
:1013C000FFF72AF9C01B02287ED830688007F7D4BF
:1013D0002878400768D5DFF87CA100270AF1380A91
:1013E000DAF80000C0000BD4DAF8001041F08051A8
:1013F000CAF80010DAF80000012700F080500090D1
:10140000584E3068C00510D4306840F480703060A9
:10141000FFF702F9009005E0FFF7FEF80099401A87
:10142000022851D83068C005F6D54A4EA8686836FB
:1014300001280FD00528306810D020F0010030605E
:10144000306820F004003060A868B8B1FFF7E4F815
:1014500000900FE0306840F00100F4E740F0040035
:101460003060F7E7FFF7D8F80099411A41F2883069
:10147000814264D830688007F4D50EE0FFF7CCF8DD
:10148000009007E0FFF7C8F80099411A41F2883050
:10149000814254D830688007F4D42FB1DAF80010B4
:1014A00021F08051CAF80010A869C0B3DBF8001021
:1014B000C1F3810102294AD00228484607D0C8F862
:1014C0006000FFF7A9F800E039E005463AE047463A
:1014D000C8F86000FFF7A0F8064604E0FFF79CF8A4
:1014E000801B02282BD820688001F7D4D5E907019A
:1014F0000843A96A1C4A490802EB01416A6A41EAA9
:101500008211084395F82C1040EA01611148001F30
:10151000016001203866FFF77FF8054605E014E01A
:10152000FFF77AF8401B022809D820688001F7D518
:101530000BE000BFFFF770F8401B022802D9032020
:10154000BDE8F88F20688001F4D40020F8E701207E
:10155000F6E7000008380240003802400000474229
:10156000800E4742007000400000FFFF10B5401E93
:10157000B0F1807F01D3012010BD4FF0E024606105
:101580000F21601700F05EF80020A06107202061A5
:10159000002010BDFEE7000070B586B0142168463B
:1015A000FEF758FE16480024016841F080010160F2
:1015B000016801F080010591016841F008010160B6
:1015C000016801F008010591016841F00101016025
:1015D00000680C4E00F001004FF4704505900022A9
:1015E00029463046FFF712F801200095CDE90104A5
:1015F000694630460394FEF731FF06B070BD000027
:1016000030380240000C024010B500220849094859
:1016100000F05BFB0849074800F04FFD074905480B
:1016200000F09CF9BDE81040024800F093BD0000B6
:1016300000000020DC0100203401002034000020E4
:10164000FEE770470907090E002806DA00F00F00D0
:1016500000F1E02080F8141D704700F1E02080F8D0
:10166000001470470148FFF7A9B9000000040020EA
:101670002DE9F84F0F46C1EBC70100EB810582460B
:101680000668D5E91301441A286C3835A04200D207
:101690000446E01C4FEA900806EB471916E0441A8E
:1016A000A868A04200D20446E01C4FEA90089AF8CD
:1016B00010000090A3B2FAB23046E96801F0F6FAE1
:1016C000E8682044E860A8692044A861D9F81809AE
:1016D00080B2404505D9D5E90501814201D20028F3
:1016E000DDD134B90120D6F83418B8408143C6F8AA
:1016F00034180020BDE8F88F70477047FEF792BF9E
:1017000030B593B030216846FEF7A4FD14210CA833
:10171000FEF7A0FD19480025016841F080510160E5
:10172000006800F0805011901548016841F4804134
:1017300001600068022400F48040119001200090B4
:10174000000401908001CDE9064004200890A82003
:10175000CDE9090407200B906846FFF779FD0F20BB
:10176000CDE90C0480200E904001CDE90F05022147
:101770000CA8FFF79FFC13B030BD000040380240BA
:10178000007000401048016841F4700101600F488A
:10179000016841F0010101600C4A0021083211602A
:1017A00002680B4B1A400260031D0A4A1A60026865
:1017B00022F48022026005480C300160024958067C
:1017C000803908607047000088ED00E00038024072
:1017D000FFFFF6FE10300024D0F8180220B10021DF
:1017E000C0F81412084670470220704770B50546CD
:1017F000D0F8184200F035FBC4F80C02D5F81802F6
:1018000048B1D5F81C12D4F80402CA6804F5037173
:101810009047002070BD022070BD70B504460025C1
:10182000812100F077FA0121204600F073FA82212D
:10183000204600F06FFAD4F8180250B1D4F81C0218
:1018400004F5067440688047206801F0D9FA00204A
:101850002060284670BD10B5D0E9864159B194F892
:101860000002FF2807D08B6894F801222146984790
:10187000FF2084F80002002010BD00000A21018032
:10188000004870475C0000204321018000487047F9
:10189000AC00002043210180004870476800002010
:1018A0004321018000487047F00000202DE9F041FD
:1018B0000446007C00254FF4007670B340230222DA
:1018C0008121204600F018FB4023022201212046FE
:1018D00000F012FB082303228221204600F00CFBBB
:1018E0004FF4077001F034FBC4F81802F0B107465A
:1018F000D4F81C02006880470020C7F81402C7F81B
:101900001802207CD7F8042290B140230121204600
:1019100000F005FB2846BDE8F081FFE733460222D0
:101920008121204600F0E8FA3346CEE70125F1E7B1
:101930003346EBE710B5D0F8181269B1027C002AE3
:10194000D1F8042205D04023012100F0E8FA00205C
:1019500010BD4FF40073F7E7022010BD02460220CD
:10196000002902D00020C2F81C127047D0F81802DB
:10197000C0F8041200207047D0F81802C0F81022F6
:10198000C0F808120020704770B50646D0F818520B
:1019900008780C4610F0600121D0202927D1E28878
:1019A000AAB10006607807D5D6F81C128B682946C4
:1019B0009847E288294617E085F80002A07985F863
:1019C0000102E2882946304600F050F80FE0D6F8D0
:1019D0001C12607800228B682146984707E06078E7
:1019E0000A2804D103490122304600F059F80020AA
:1019F00070BD00005800002010B5D0F8181289B151
:101A0000D1F814220AB1012010BD0122C1F814221C
:101A1000B1F8102293B2D1F80822812100F029FBFD
:101A2000002010BD022010BD10B5D0F8142252685D
:101A30009047002010BD134610B50A46002100F063
:101A40006EFA002010BD134610B50A46002100F0C2
:101A500010FB002010BD10B50446802100F0E0FA14
:101A60002046BDE81040002100F0DABA10B503238B
:101A7000C0F80821C0F8F431C0F80C2113460A461A
:101A8000002100F04CFA002010BD10B50521002304
:101A9000C0F8F4111A46194600F041FA002010BDB2
:101AA00010B502238261C0F8F431C26113460A46C0
:101AB000002100F0DEFA002010BD10B50421002343
:101AC000C0F8F4111A46194600F0D3FA002010BDF0
:101AD00010B50A46024903A000F0D4F8004810BD32
:101AE000F007002043444320436F6E66696700009F
:101AF00012200880004870472000002010B50A46D8
:101B0000024903A000F0BEF8004810BDF007002015
:101B100043444320496E746572666163650000004A
:101B200004200880004870471C00002010B50A46B9
:101B3000024903A000F0A6F8004810BDF0070020FD
:101B400053544D6963726F656C656374726F6E692F
:101B50006373000010B50A46024903A000F092F832
:101B6000004810BDF007002053544D333220566911
:101B7000727475616C20436F6D506F727400000059
:101B800010B50A46024903A000F07CF8004810BDD9
:101B9000F0070020303030303030303030303141DC
:101BA00000000000F8B5044648880D46010A0829DF
:101BB0004BD2DFE801F04A0409174A4A4048D4F8FA
:101BC0001012207C0A6832E0207C02260028D4F81B
:101BD000140205D0C16A684688470146467041E054
:101BE000816AF8E7C0B206282FD2DFE800F00308C8
:101BF0000D12171CD4F81012207C4A6817E0D4F894
:101C00001012207C8A6812E0D4F81012207CCA6876
:101C10000DE0D4F81012207C0A6908E0D4F8101204
:101C2000207C4A6903E0D4F81012207C8A69694656
:101C30009047014616E0207C38B9D4F81402416B75
:101C400068468847F5E7207C20B129462046FFF703
:101C500002FFF8BDD4F81402016B684688470146BC
:101C600007204870BDF800000028F2D0EA88002A5A
:101C7000EFD0824200D90246ADF800202046FFF79F
:101C80000FFFF8BD70B5002300281DD004460025C5
:101C900002E06D1CEDB2641C2678002EF9D10224FE
:101CA00004EB45041480CC545B1C0322CA5400246A
:101CB0005B1C06E0CA545B1CDAB28C54521CD3B2D3
:101CC000401C0278002AF5D170BD10B580B1D0F863
:101CD000143213B10023C0F8143209B1C0F8101245
:101CE000012180F8FC11027000F0C0F8002010BD46
:101CF000022010BD10B50024D0F82002FEF78DFDA3
:101D000030B1012801D0022801D0022400E00124D2
:101D1000204610BD10B50024D0F82002FEF75BFD70
:101D200030B1012801D0022801D0022400E00124B2
:101D3000204610BD2DE9F0411746044641B1D4F8C4
:101D4000140242698AB394F8FC01032842D043E0AC
:101D5000D4F8F411002504F11400022933D1D0E99C
:101D600002639E4207D9F31A83609AB2394620462D
:101D7000FFF769FE12E04068B0FBF3F103FB1101CD
:101D8000A1B9984212D3D4F8F81188420ED2002299
:101D900011462046FFF757FEC4F8F85100231A46B3
:101DA0001946204600F0BBF80DE012E0D4F814020A
:101DB000C16829B194F8FC01032801D12046884765
:101DC0002046FFF762FE94F80002012804D184F84F
:101DD000005201E0204690470020BDE8F08170B538
:101DE0001546044641B1D4F8140282693AB394F816
:101DF000FC01032824D025E0D4F8F41104F5827006
:101E000003291FD1D0E902218A420BD9531A8360DA
:101E10000846834200D303469AB229462046FFF77C
:101E20000AFE0FE0D4F81402016929B194F8FC010C
:101E3000032801D1204688472046FFF73EFE01E0F7
:101E400020469047002070BD0020704710B501214A
:101E500080F8FC11D0F814220179526890470020D4
:101E600010BDD0F82002FEF700BD000010B50178CB
:101E700049BB16490222C1F8EC03C0F820124FF00A
:101E8000A0400860042048600020C1E90320C1E9A7
:101E90000502C861086201224862C1E90B200846B8
:101EA000FFF70EF808B1FEF7C6FA80210748FEF7E3
:101EB00051FC402200210548FEF750FC8022012100
:101EC0000248FEF74BFC002010BD0000000400207B
:101ED0000A0601F07F01D0F82002C1EBC10100EB3E
:101EE000810002D590F83A00704790F8FA017047E7
:101EF000002070470020704770B51D46134600242F
:101F0000D0F820022A46FEF7BAFC30B1012801D0F1
:101F1000022801D0022400E00124204670BD10B543
:101F20000024D0F82002FEF7D4FC30B1012801D003
:101F3000022801D0022400E00124204610BD70B523
:101F40000022044640231146FFF7D6FF40252B46CA
:101F5000002280212046C4F81051FFF7CDFF012058
:101F6000256284F8FC01D4F8180228B1D4F81402D0
:101F70002179426820469047002070BD90F8FD11FD
:101F800080F8FC110020704710B590F8FC1103296F
:101F900004D1D0F81412C96901B18847002010BDDE
:101FA00001740020704710B50024D0F82002FFF71C
:101FB0003BF830B1012801D0022801D0022400E012
:101FC0000124204610BD70B5044600F50270054698
:101FD00000F05FF80120C4F8F401B4F80E02C4F870
:101FE000F80194F8080210F01F010AD001290DD061
:101FF000022910D000F08001204600F011F80020E6
:1020000070BD2946204600F0AAF8F8E72946204688
:1020100000F08CF9F3E72946204600F019F9EEE7C5
:1020200010B50024D0F82002FEF777FC30B101286B
:1020300001D0022801D0022400E00124204610BD76
:1020400010B50024D0F82002FFF707F830B10128BE
:1020500001D0022801D0022400E00124204610BD56
:1020600090F8FC1180F8FD11042180F8FC1100208B
:10207000704710B50024D0F82002FEF77EFC30B186
:10208000012801D0022801D0022400E001242046CA
:1020900010BD0A7802704A7842708A78CB7802EBD9
:1020A000032242800A794B7902EB032282808A79EB
:1020B000C97902EB0121C18070470246002011B1AD
:1020C000C2F8141270470220704710B5D0F81422DD
:1020D00002241AB11268904700B90024204610BDAE
:1020E00070B50E461A4D897804462970012928D802
:1020F00094F8FC01022802D0032822D105E099B10E
:102100000320616084F8FC0109E091B160688842B5
:102110000AD0C1B22046FFF787FC297861602046CB
:10212000FFF7D3FF02280CD02046BDE87040FFF730
:10213000C4BC022084F8FC0120466160FFF774FCF7
:10214000F2E731462046BDE87040FFF784BC00004E
:102150005400002010B5FFF773FF002010BD2DE9DB
:10216000F04100264B78012532460A2B43D2DFE8A6
:1021700003F03C584251420805422A27FFF712FD5E
:1021800063E004468888C8B9C888B8B9887800F080
:102190007F0794F8FC01032810D084F8FE713946BB
:1021A0002046FFF700FF2046FFF787FC1FB1022003
:1021B00084F8FC0149E084F8FC5146E020461AE02E
:1021C000FFF78EFF41E0CB88012B14D190F8FC3152
:1021D000022B02D0032B0ED104E08260012200F119
:1021E000080114E00122011D11E090F8FC21022AEF
:1021F00004D0032A02D0FFF72EFC26E0C560D0F8F9
:10220000041209B10321C160022200F10C01FFF7A1
:1022100047FC1AE004464888012816D1C4F8045245
:102220000BE0044690F8FC01022801D00328C5D138
:102230004888012809D1C4F80422D4F8140282681D
:10224000204690472046FFF738FC3046BDE8F08135
:1022500070B50D460446287800260979C0F3411070
:10226000012806D06878A0B301281FD003283FD1E9
:1022700007E0D4F8140229468268204690470020DF
:1022800070BD94F8FC01022817D003282CD168886F
:1022900028B921B1802902D02046FFF7C1FED4F829
:1022A0001402294682682046904713E094F8FC0106
:1022B000022802D0032817D103E0C9B180291BD11D
:1022C00016E06888A0B9480604D02046FFF712FD42
:1022D000E5E703E02046FFF7F0FB09E094F8FC0196
:1022E000022807D003280BD029462046FFF7B3FB6E
:1022F000304670BD4806FBD02046FFF791FEF7E759
:10230000080601F07F0004EB001501D5143501E04B
:1023100005F582752046FFF7DBFD00B1012028603E
:10232000022229462046FFF7BBFBE1E770B50546D0
:1023300090F8FC010C4603280DD1207901280AD819
:10234000D5F81402826828469047E08830B92846BC
:10235000FFF7B3FB02E02846FFF77DFB002070BDCE
:1023600030B54C781D4B01220D78AA40012CD0F8D5
:102370001C4818D044EA0242C0F81C280A7800EB36
:102380004210D0F8002B12040BD4D0F8002B0C898B
:10239000C4F30A042243C97843EA81410A43C0F8DE
:1023A000002B002030BD92B21443C0F81C480C78BA
:1023B00000EB4410D0F800291204F2D4D0F8002920
:1023C0000D89C5F30A052A43C978890441EA845175
:1023D0000A431A43C0F80029E3E700000080001018
:1023E000D0F800196FF30A01C0F80019D0F80818E6
:1023F000C1F34101022905D1D0F8001941F00301D0
:10240000C0F80019D0F8041841F48071C0F804181D
:102410000020704770B50446049D06990D98012967
:102420000CD0E06840F04000E060204600F028F862
:102430004FF48030A063012D16D01DE0A16B21F474
:102440008031A163E1680D4A1140E160E16821F447
:102450004011E160012803D1E06840F48010E060A1
:10246000204600F00DF8E6E7A06840F00600A06006
:10247000A06840F02000A060002070BDBFFFBDFF3D
:1024800001220C4902E0521C8A420BD80369002B3E
:10249000F9DA026942F001020261012204E0521CF1
:1024A0008A4201D9032070470369DB07F7D1002076
:1024B00070470000400D0300F0B50D4604464F780C
:1024C0000126F206D3002D49287804EB4010012F95
:1024D00014D0D0F8007B27F40047C0F8007B2878A0
:1024E00004EB4010C0F8002B287804EB4010C0F833
:1024F000003B01202A7804EB42122BE0D0F800794F
:1025000027F40047C0F80079287804EB4010C0F8A1
:102510000029287804EB4010C0F8003901202A78FF
:1025200004EB421202E0401C884211D8D2F808396C
:102530005B00F8D41021204600F024FBD4F81C08DE
:1025400029788E40B1B2884314E0401C884201D9FA
:102550000320F0BDD2F8083BDB06F6D4D4F804081B
:1025600040F48060C4F80408D4F81C0829788E4030
:1025700020EA0640C4F81C080020F0BD400D03000E
:1025800010B5D0F8041821F00201C0F80418032097
:10259000FDF752FF002010BD10B5D0F8041841F02F
:1025A0000201C0F804180320FDF746FF002010BD0B
:1025B0002DE9F0470E460446DDE90A0A0025DDF85C
:1025C0003C80089F5FEA0801A16B11D041F4002113
:1025D000A1634FF00009C4F8009ED4F80018C4F8B5
:1025E0000018012807D0D4F8000840F0030007E0E5
:1025F00041F40011ECE7D4F800080BB140F0010001
:10260000C4F800081021204600F0BCFA204600F073
:10261000A9FA4846C4F81098C4F814984FF0FF314E
:10262000C4F81818C4F81C984FF0904CFF230FE022
:1026300004EB4511D1F80029002A02DAC1F800C9DB
:1026400001E0C1F80009C1F81009C1F808396D1C92
:10265000AE42EDD800210FE004EB4112D2F8005B4E
:10266000002D02DAC2F800CB01E0C2F8000BC2F87C
:10267000100BC2F8083B491C8E42EDD8D4F8101854
:1026800021F48071C4F81018012F0AD11449C4F83C
:102690003018D4F83018134A1143C4F83018D4F85D
:1026A0003018A0616FF0804060611FB9A06940F0F0
:1026B0001000A061A0690C490843A061BAF1000FA5
:1026C00003D0A06940F00800A061B8F1010F03D168
:1026D000A06906490843A0610020BDE8F08700001A
:1026E000000180000300010000383C80040000402D
:1026F000816821F0010181600020704730B54D787C
:102700004D4C0B7800EB4313012D28D0D3F8105B10
:102710006FF31205C3F8105B0B7800EB4313D3F88B
:10272000105B2540C3F8105B4B690BB18B684B61A4
:102730000B7800EB4313D3F8104B44F40024C3F898
:10274000104B0B7800EB4313D3F8104B8D68C5F397
:1027500012052C43C3F8104B012A5CD061E04D698F
:10276000002DD3F810593BD06FF31205C3F8105960
:102770000B7800EB4313D3F810592540C3F81059D8
:102780004C698B689C4200D94B610B7800EB43137A
:10279000D3F8104944F40024C3F810490B7800EB37
:1027A0004313D3F810494D69C5F3120554EA0504E3
:1027B000C3F810490B7800EB4313D3F8004944F0F9
:1027C0000444C3F80049012A1ED04A6912B3D0F864
:1027D00034280B78012199400A43C0F8342829E0B5
:1027E0002540C3F810590B7800EB4313D3F8104978
:1027F00044F40024C3F810490B7800EB4313D3F8DA
:1028000010496FF31204D3E70A69097800EB41100D
:10281000C0F814290EE00B7800EB4313CA68C3F824
:10282000142B097800EB4110D0F8001B41F0044153
:10283000C0F8001B002030BDFFFF07E00023C0F8F8
:10284000103BD0F8103B43F40023C0F8103BD0F805
:10285000103B43F01803C0F8103BD0F8103B43F096
:10286000C043C0F8103B012905D1C0F8142B4FF02C
:102870008021C0F8001B002070474B780A7800EBDD
:102880004212012B0BD0D2F8003B23F40013C2F804
:10289000003BCA78032A17D0022A15D01DE0D2F8CF
:1028A000003923F40013C2F80039CA78032A01D092
:1028B000022A12D1097800EB4110D0F8001941F03A
:1028C0008051C0F8001908E0097800EB4110D0F8F9
:1028D000001B41F08051C0F8001B002070474B786E
:1028E0000A7800EB4212012B14D0D2F8003B002BE7
:1028F00005DBD2F8003B23F08043C2F8003B0978A7
:1029000000EB4110D0F8001B41F40011C0F8001B8F
:1029100000207047D2F80039002B05DBD2F80039CF
:1029200023F08043C2F80039097800EB4110D0F859
:10293000001941F40011C0F80019E9E778B54E78A4
:102940006FF06045834C0B7800EB4313012E2FD0C2
:10295000D3F8106B6FF31206C3F8106B0B7800EB13
:102960004313D3F8106B2640C3F8106B4B69002B50
:102970007DD08C6823445B1EB3FBF4F39BB20C78D0
:1029800000EB4414D4F8106B05EAC3452E43C4F899
:10299000106B0C7800EB4414D4F8105B8E685E4327
:1029A000C6F312031D43C4F8105B012A73D0B2E0D2
:1029B0004E6966B3D3F810696FF31206C3F8106955
:1029C0000B7800EB4313D3F810692640C3F8106965
:1029D0004C698B681C44641EB4FBF3F305EAC344E2
:1029E0000B7800EB4313D3F810592C43C3F810496C
:1029F0000B7800EB4313D3F810494D69C5F312056A
:102A00002C43C3F81049CB78012B16D027E0D3F81C
:102A100010592540C3F810590B7800EB4313D3F835
:102A2000104944F40024C3F810490B7800EB431319
:102A3000D3F810496FF312040FE00B7800EB431347
:102A4000D3F8104924F0C044C3F810490B7800EBC8
:102A50004313D3F8104944F00054C3F81049012A35
:102A600012D0CB78012B17D04B692BB300E037E0A5
:102A7000D0F834380D780124AC402343C0F8343802
:102A8000CB78012B08D017E00C7800EB44140B69CD
:102A9000C4F81439F4E738E0D0F80838DB050B78CF
:102AA00000EB4313D3F8004902D444F0005401E092
:102AB00044F08054C3F800490B7800EB4313D3F87B
:102AC000004944F00444C3F80049CB78012B3ED1BF
:102AD00000928A8A93B20A78C96800F0E7F836E073
:102AE0000B7800EB4313D3F8104B8D68C5F3120538
:102AF0002C43C3F8104B0B7800EB4313D3F8104B67
:102B000044F40024C3F8104B4FE70B7800EB431359
:102B1000CA68C3F8142BCA78012A0FD1D0F8082844
:102B2000D2050A7800EB4212D2F8003B02D443F0FF
:102B3000005301E043F08053C2F8003B097800EBFA
:102B40004110D0F8001B41F00441C0F8001B0020E8
:102B500078BD0000FFFF07E0816841F0010181605E
:102B600000207047002110220261054A491C914251
:102B700001D9032070470369DB06F7D400207047B2
:102B8000400D03000022202343EA81110161054921
:102B9000521C8A4201D90320704703699B06F7D46F
:102BA00000207047400D03000021D0F8082812F0E3
:102BB000060F15D0D0F80828C2F34102012A0CD024
:102BC000D0F80828C2F34102032A06D0D0F808083A
:102BD000C0F34100022802D002E0032100E00221FC
:102BE00008467047406900F001007047D0F8181897
:102BF000D0F81C08084080B27047D0F81818D0F8F8
:102C00001C080840000C7047D0F81038D0F8342861
:102C1000CA4002F0010243EAC21200EB4110D0F8B0
:102C200008091040704700EB4111D1F8081BD0F89B
:102C3000140808407047416980690840704710B522
:102C400003460020D21C920803F5805303E01C6861
:102C500041F8044B401C9042F9D3084610BD10B512
:102C6000C26822F0C042C260012901D021B107E050
:102C7000C16841F0005102E0C16841F08041C1608B
:102C80003220FDF7D9FB002010BDD0F8002822F437
:102C9000FE62C0F80028D0F800284FF4FE6303EA73
:102CA00001110A43C0F800280020704730B5002405
:102CB000039D6DB9DB1C9B0800EB023000F58050D2
:102CC00004E000BF51F8042B0260641C9C42F9D35D
:102CD000002030BDFEE700000FB4084B10B504A97A
:102CE00002AA039800F01BF8044602A9002000F095
:102CF00081F8204610BC5DF814FB0000F52D00089B
:102D000002E008C8121F08C1002AFAD170477047B4
:102D1000002001E001C1121F002AFBD170472DE9FC
:102D2000F84F9946924688460546002706E0252832
:102D30000AD051464A4690476D1C7F1C28780028CF
:102D4000F5D13846BDE8F88F002315F8011F184665
:102D50002E2915D115F8011F04232A290DD06FF053
:102D60002F022978A1F13004092C09D800EB80004A
:102D700002EB400008446D1CF3E758F8040B6D1C8F
:102D80002A78002ADDD0632A07D0732A0FD0104694
:102D900051464A4690477F1C2AE018F8042B8DF8CC
:102DA000002000218DF801106E46012103E058F843
:102DB000046B4FF0FF315A074FF0000401D409E0D3
:102DC000641C84420BDA8C42FADB325D002AF7D1B4
:102DD00005E0641C8C42FCDB305D0028F9D12744FF
:102DE00004E016F8010B51464A469047641EF8D29B
:102DF0006D1CA3E70A68531C0B601070704700003D
:102E000010B5002821D0114B0022001F196803E0E3
:102E1000814203D80A4649680029F9D152B11368A2
:102E2000841A9C4204D1006818441060104602E0E5
:102E3000506000E0186039B102680B1A934203D168
:102E40000B681A4402604968416010BD700100209F
:102E50002DE9F0414FF48051274C4D008E00CF00FA
:102E60003138052845D2DFE800F0030919242F0086
:102E700001222046FDF7CAFB002204E00022204682
:102E8000FDF7C4FB012229462046FDF7BFFB0022C7
:102E900031462046FDF7BAFB002224E000222046FE
:102EA000FDF7B4FB002229462046FDF7AFFB0122C7
:102EB000EEE700222046FDF7A9FB00222946204626
:102EC000FDF7A4FB002209E001222046FDF79EFB4E
:102ED000012229462046FDF799FB01223146204672
:102EE000FDF794FB012239462046BDE8F041FDF78D
:102EF0008DBB0022BDE70000000C0240FDF79AFBED
:102F0000FEF7FEFBFEF748FBFEF77EFB4FF47A74FC
:102F1000094A0AA1A2F13200FFF7DEFE0648323864
:102F2000FDF7A3F981B204483238FDF76DFA204667
:102F3000FDF782FAECE70000AA010020536F6E2033
:102F400067656C656E20646174613A25730D0A00D3
:102F5000F0B50B30154D20F007010024144A0FE0A6
:102F600003688B420BD38B4205D95E1A431847681E
:102F7000C3E9006700E04368136002C004E0021D7B
:102F800010680028ECD12046002802D1286808B13A
:102F90000020F0BD064A07481060074A121A22F0C6
:102FA0000702C0E9002401202860D7E7740100204F
:102FB00070010020F4190020F0390020000000000A
:102FC000000000000102030406070809EC2F0008B6
:102FD000000000207801000034030008AC30000835
:102FE0007801002078780000102D000813F11A14E1
:102FF00008211B1B082D041A55041A81041AD11428
:103000001AFD0417040309041201140202021640F7
:10301000830440572602010203011395031B089104
:10302000041A8D041AB90419131182109324F4138D
:103030000A0632022A40201C0902433F1125C032F1
:1030400009041B01020B13052416100105240110AD
:10305000090104240202052406170107058203085A
:103060001C10090475320A1D07050102432C0705CF
:1030700081070938442A40072A8107112B09074490
:103080000A2204440A16FF4413AD181B081B04133C
:10309000891942081A570C13D9171B08ED04C12AC5
:0C30A000952419041AA1041A7D04C10033
:040000050800018965
:00000001FF
