:020000040800F2
:10000000280400209D010008530C00080F0C000874
:10001000510C0008850200087D0D0008000000005A
:10002000000000000000000000000000770C000845
:100030008702000800000000750C0008790C000819
:10004000B7010008B7010008B7010008B7010008B0
:10005000B7010008B7010008B7010008B7010008A0
:10006000B7010008B7010008B7010008B701000890
:10007000B7010008B7010008B7010008B701000880
:10008000B7010008B7010008B7010008B701000870
:10009000B7010008B7010008B7010008B701000860
:1000A000B7010008B7010008B7010008B701000850
:1000B000B7010008B7010008B7010008B701000840
:1000C000B7010008B7010008B7010008B701000830
:1000D000B7010008B7010008B7010008B701000820
:1000E000B7010008B7010008B7010008B701000810
:1000F000B7010008B7010008B7010008B701000800
:10010000B7010008B7010008B7010008B7010008EF
:10011000B7010008B7010008B7010008B7010008DF
:10012000B7010008B7010008B7010008B7010008CF
:10013000B7010008B7010008B7010008B7010008BF
:10014000B7010008B7010008B7010008B7010008AF
:10015000B7010008B7010008B7010008B70100089F
:10016000B7010008B7010008B7010008B70100088F
:10017000B7010008B7010008B7010008000000003F
:10018000B7010008B7010008DFF80CD000F068F8EC
:10019000004800479D0D00082804002006488047BD
:1001A00006480047FEE7FEE7FEE7FEE7FEE7FEE75C
:1001B000FEE7FEE7FEE7FEE7290D000889010008DB
:1001C0002DE9F05F0546002092469B46884606468C
:1001D000814640241BE0284641464746224600F01F
:1001E0002FF853465A46C01A914110D3114618466B
:1001F000224600F016F82D1A67EB01084F462246FA
:100200000120002100F00DF817EB00094E41201EDF
:10021000A4F10104DFDC484631462A464346BDE8E6
:10022000F09F202A04DB203A00FA02F100207047F8
:100230009140C2F1200320FA03F319439040704724
:10024000202A04DB203A21FA02F00021704721FA2B
:1002500002F3D040C2F12002914008431946704792
:10026000064C074D06E0E06840F0010394E8070003
:1002700098471034AC42F6D3FFF78AFF300E0008DF
:10028000500E0008FEE7704770B54379012B1AD075
:10029000012646710223037105682C6840F6FE733F
:1002A00093409C43D1E900310B43934023432B609F
:1002B00001680B68C0249440A3430B6006710021C1
:1002C0004171084670BD022070BD70B5040003D0B6
:1002D0002079002510B105E0012070BD6571204630
:1002E00000F008F802202071256101202071002013
:1002F00070BD000000B500680C4987B0884212D17B
:100300000B480021026842F000520260006800F0D1
:1003100000500590302000900320CDE9010169468E
:10032000044800F05FF807B000BD00000074004012
:10033000403802400000024018B50468009400688C
:10034000104421B1143000900360002018BD083023
:10035000F9E730B54279012A16D001224271022311
:10036000037103681D6802FA01F425431D6000292A
:1003700001680B680AD00C6803F4802304F460144D
:10038000B3F5802F0FD015E0022030BD0C6803F0CC
:10039000040304F03804042B0CD1382C0AD14B6828
:1003A00043F0010305E0B4F5601F03D14B6843F04F
:1003B00002034B60027100214171084630BD00000C
:1003C00070B5044600F0E6F80546601C02D004480B
:1003D0000078044400F0DEF8401BA042FAD370BD60
:1003E000000000202DE9F84FDFF87CB100224FF02B
:1003F00001084FF0030A4FF00F090BF1040E00BF84
:100400000B6808FA02F42340A3426ED14D68022D16
:1004100001D0122D0ED1D50800EB850CDCF8205050
:100420005607F70E09FA07F6B5430E69BE402E438C
:10043000CCF82060066855000F790AFA05FC07F031
:10044000030726EA0C06AF40374307604E68012ECB
:1004500005D0022E03D0112E01D0122E0ED18668A7
:10046000CF6826EA0C06AF40374387604668A6434C
:100470000C79C4F30014944034434460C6688C681B
:1004800026EA0C06AC403443C4604C68E40065D5F1
:10049000364C256845F480452560246822F0030524
:1004A00004F480440094324C2E19D6F8084895077D
:1004B0002F0F09FA07F5AC432E4DA84201D10025B4
:1004C00024E02D4DA84201D101251FE02B4DA8426B
:1004D00001D102251AE02A4DA84201D1032515E0D9
:1004E000284DA84202D1042510E037E0264DA8424D
:1004F00001D105250AE0254DA84201D1062505E0D8
:10050000234DA84201D1072500E00825BD40254321
:10051000C6F80858DBF800405D464E689C43F60379
:1005200000D51C432C60DEF8004075464E689C43A5
:10053000B60300D51C432C600B4D08352C684E6863
:100540009C43F60200D51C432C60074D0C352C68EB
:100550004E689C43B60200D51C432C60521C102AE6
:10056000FFF44EAFBDE8F88F003C01404438024034
:100570000030014000000240000402400008024038
:10058000000C02400010024000140240001802401B
:10059000001C0240014880687047000000000020F5
:1005A0000248816802781144816070470000002091
:1005B0000B4810B5016841F400710160016841F415
:1005C00080610160016841F480710160032000F0E6
:1005D0008BF8002000F006F800F024F8002010BD91
:1005E000003C024070B50D4D04464FF47A712878F6
:1005F000B1FBF0F00A490968B1FBF0F000F0EFFA46
:1006000048B9102C07D200222146501E00F04CF8A9
:1006100000206C6070BD012070BD00000000002053
:100620000C0000201F4808B5016841F480410160BA
:10063000006800F4804000901A48001F016841F0F3
:1006400080510160006800F080500090032000F0AD
:100650004BF8002211466FF00B0000F025F8002245
:1006600011466FF00A0000F01FF8002211466FF0EB
:10067000090000F019F800221146501F00F014F88C
:1006800000221146101F00F00FF800221146901EA4
:1006900000F00AF80022BDE808401146501E00F0A4
:1006A00003B8000044380240F0B40E4B1B680C46FF
:1006B000C3F30223C3F10705042D00D90425191D36
:1006C000072901D2002300E0DB1E012606FA05F10E
:1006D000491E214099409E40761E16403143F0BC91
:1006E00000F0B8BA0CED00E0064900F00702086817
:1006F0004FF6FF03184040EA0220034A1043086007
:10070000704700000CED00E00000FA052DE9F0470D
:100710000E46050065D0DFF81481D8F80000F7B266
:1007200000F00F00B04207D288F80070D8F800003F
:1007300000F00F00B04254D128683D4C810712D51B
:10074000400703D5206840F4E05020602878000777
:1007500003D5206840F4604020602068A96820F03C
:10076000F000084320602878C0072DD03049686821
:100770000839012812D0022813D0032811D00968A3
:10078000890700292DDA216821F003010143216046
:10079000FFF700FF814641F2883A0EE009688903BD
:1007A000EFE709688901ECE7FFF7F4FEA0EB090128
:1007B000514502D90320BDE8F0872068696800F040
:1007C0000C00B0EB810FEFD1D8F80010404601F0DB
:1007D0000F01B14207D90770006800F00F00B04266
:1007E00001D00120E7E72878400705D52068E968AF
:1007F00020F4E050084320602878000706D52068E0
:10080000296920F4604040EAC100206000F01CF833
:100810002168084AC1F30311515CC84006490860C9
:100820000020FFF7DFFE0020C5E70000003C02408B
:1008300008380240200E00080C0000200148006823
:10084000704700000C000020154810B5006810F03B
:100850000C02144813D04110042A0FD0082A0ED1DC
:100860000F4C241F2268236802F03F025B0207D569
:100870002068C0F38810A0FB010106E0084610BD07
:100880002168C1F38811A1FB00010023FFF798FC48
:100890002168C1F30141491C4900B0FBF1F010BDD2
:1008A000083802400024F4002DE9F84F050076D006
:1008B0002878DFF8F8B2BE4CC00749D0DBF800104A
:1008C0005846C1F38101012908D00068C0F38100B6
:1008D00002280AD1201D0068400206D52068800346
:1008E00036D568680028E2D032E06868B0F5803F0D
:1008F00010D0B0F5A02F206810D020F480302060F8
:10090000206820F4802020606868A0B1FFF742FED4
:1009100006460CE0206840F48030F4E740F4802084
:100920002060F7E7FFF736FE801B642873D8206845
:100930008003F7D50CE0FFF72DFE064605E000BF6B
:10094000FFF728FE801B6428F0D820688003F7D4C6
:100950002878DFF8608280074FF000093ED5DBF889
:100960000010584611F00C0F09D00068C0F3810048
:1009700002280BD18D48001F0068400206D4206871
:10098000800715D5E868012809D111E0E868B8B1F9
:100990000120C8F80000FFF7FDFD064605E002E172
:1009A000FFF7F8FD801B0228C0D820688007F7D524
:1009B0002068296920F0F80040EAC10020600DE0BD
:1009C000C8F80090FFF7E6FD064604E0FFF7E2FDF9
:1009D000801B02281FD820688007F7D428780007DA
:1009E00022D5724E744869696C3671B1012101607B
:1009F000FFF7D0FD074604E0FFF7CCFDC01B02283F
:100A000009D830688007F7D50EE0C0F80090FFF7EE
:100A1000C1FD074605E083E0FFF7BCFDC01B0228CF
:100A20007ED830688007F7D42878400768D5DFF88B
:100A30007CA100270AF1380ADAF80000C0000BD4C4
:100A4000DAF8001041F08051CAF80010DAF800001E
:100A5000012700F080500090584E3068C00510D437
:100A6000306840F480703060FFF794FD009005E03E
:100A7000FFF790FD0099401A022851D83068C00550
:100A8000F6D54A4EA868683601280FD00528306888
:100A900010D020F001003060306820F00400306099
:100AA000A868B8B1FFF776FD00900FE0306840F01D
:100AB0000100F4E740F004003060F7E7FFF76AFD5B
:100AC0000099411A41F28830814264D83068800729
:100AD000F4D50EE0FFF75EFD009007E0FFF75AFD4A
:100AE0000099411A41F28830814254D83068800719
:100AF000F4D42FB1DAF8001021F08051CAF80010B8
:100B0000A869C0B3DBF80010C1F3810102294AD003
:100B10000228484607D0C8F86000FFF73BFD00E018
:100B200039E005463AE04746C8F86000FFF732FD75
:100B3000064604E0FFF72EFD801B02282BD8206814
:100B40008001F7D4D5E907010843A96A1C4A49087E
:100B500002EB01416A6A41EA8211084395F82C10C0
:100B600040EA01611148001F016001203866FFF76B
:100B700011FD054605E014E0FFF70CFD401B0228BF
:100B800009D820688001F7D50BE000BFFFF702FD10
:100B9000401B022802D90320BDE8F88F206880019D
:100BA000F4D40020F8E70120F6E7000008380240FE
:100BB0000038024000004742800E4742007000406B
:100BC0000000FFFF4FF0E0210428086903D020F067
:100BD00004000861704740F00400FAE7704710B560
:100BE000401EB0F1807F01D3012010BD4FF0E02402
:100BF00060610F21601700F02DF80020A061072030
:100C00002061002010BD10B5FFF7E8FF10BDFEE722
:100C10001CB50E490C4808600846FFF756FB00B1AA
:100C2000FEE7002000900246019069460748FFF762
:100C30002BFB00B1FEE7102269460448FFF724FBB6
:100C4000002800D0FEE71CBD00740040100000200A
:100C5000FEE770470907090E002806DA00F00F00CA
:100C600000F1E02080F8141D704700F1E02080F8CA
:100C7000001470477047704710B5FFF791FCBDE84E
:100C80001040FFF7C0BF000030B5254893B00025E5
:100C9000016841F080510160006800F080501190BF
:100CA0002048016841F4804101600068022400F49A
:100CB000804011900120039010200490009406942D
:100CC0000820CDE90750A820CDE9090404200B90A5
:100CD0006846FFF7E9FD00B1FEE70CA90F2081E8A7
:100CE00031004FF4A0500F904FF480501090052128
:100CF0000CA8FFF70BFD00B1FEE7FFF79FFD4FF4D7
:100D00007A71B0FBF1F0FFF76AFF0420FFF75AFF9A
:100D100000221146501EFFF7C7FC13B030BD000083
:100D200040380240007000401048016841F47001F2
:100D300001600F48016841F0010101600C4A002187
:100D40000832116002680B4B1A400260031D0A4A08
:100D50001A60026822F48022026005480C300160AB
:100D600002495806803908607047000088ED00E0AD
:100D700000380240FFFFF6FE10300024FEE702E0DC
:100D800008C8121F08C1002AFAD170477047002016
:100D900001E001C1121F002AFBD1704708B50024F1
:100DA000FFF706FCFFF770FF1B48016841F0800168
:100DB0000160016801F080010091016841F00101CA
:100DC0000160006800F001000090FFF721FF0021A2
:100DD0001248FFF7BEFA10211048FFF7BAFA0022B6
:100DE00040F2FF7311460D48FFF7A6FA032540F6BF
:100DF000C41600BFC4EB0430B0FBF5F30022102191
:100E00000648FFF799FA641CE4B2042C00D10024D0
:100E10003046FFF7D5FAEDE73038024010000020E9
:100E2000000000000000000001020304060708099A
:100E3000500E000800000020100000007E0D000889
:100E4000600E000810000020180400008E0D00083D
:100E50000100000010000000000000000024F40069
:040000050800018965
:00000001FF
